{
  "contractName": "SimpleStorage",
  "abi": [
    {
      "constant": true,
      "inputs": [
        {
          "internalType": "uint256",
          "name": "",
          "type": "uint256"
        }
      ],
      "name": "ownerAccts",
      "outputs": [
        {
          "internalType": "address",
          "name": "",
          "type": "address"
        }
      ],
      "payable": false,
      "stateMutability": "view",
      "type": "function"
    },
    {
      "constant": false,
      "inputs": [
        {
          "internalType": "address",
          "name": "_address",
          "type": "address"
        },
        {
          "internalType": "string",
          "name": "_id",
          "type": "string"
        },
        {
          "internalType": "string",
          "name": "_fName",
          "type": "string"
        },
        {
          "internalType": "string",
          "name": "_lName",
          "type": "string"
        },
        {
          "internalType": "string",
          "name": "_lats",
          "type": "string"
        },
        {
          "internalType": "string",
          "name": "_state",
          "type": "string"
        },
        {
          "internalType": "string",
          "name": "_city",
          "type": "string"
        },
        {
          "internalType": "string",
          "name": "_locality",
          "type": "string"
        },
        {
          "internalType": "string",
          "name": "_plotNo",
          "type": "string"
        },
        {
          "internalType": "string",
          "name": "_buyingRate",
          "type": "string"
        },
        {
          "internalType": "string",
          "name": "_landSize",
          "type": "string"
        },
        {
          "internalType": "string",
          "name": "_hashValue",
          "type": "string"
        },
        {
          "internalType": "string",
          "name": "_price",
          "type": "string"
        }
      ],
      "name": "setOwner",
      "outputs": [],
      "payable": false,
      "stateMutability": "nonpayable",
      "type": "function"
    },
    {
      "constant": false,
      "inputs": [
        {
          "internalType": "string",
          "name": "_buyerID",
          "type": "string"
        },
        {
          "internalType": "string",
          "name": "_sellerID",
          "type": "string"
        },
        {
          "internalType": "address",
          "name": "_address",
          "type": "address"
        },
        {
          "internalType": "string",
          "name": "_fName",
          "type": "string"
        },
        {
          "internalType": "string",
          "name": "_lName",
          "type": "string"
        },
        {
          "internalType": "string",
          "name": "_sellerLastID",
          "type": "string"
        }
      ],
      "name": "transaction",
      "outputs": [],
      "payable": false,
      "stateMutability": "nonpayable",
      "type": "function"
    },
    {
      "constant": true,
      "inputs": [
        {
          "internalType": "string",
          "name": "_id",
          "type": "string"
        }
      ],
      "name": "getfName",
      "outputs": [
        {
          "internalType": "string",
          "name": "",
          "type": "string"
        }
      ],
      "payable": false,
      "stateMutability": "view",
      "type": "function"
    },
    {
      "constant": true,
      "inputs": [
        {
          "internalType": "string",
          "name": "_id",
          "type": "string"
        }
      ],
      "name": "getlName",
      "outputs": [
        {
          "internalType": "string",
          "name": "",
          "type": "string"
        }
      ],
      "payable": false,
      "stateMutability": "view",
      "type": "function"
    },
    {
      "constant": true,
      "inputs": [
        {
          "internalType": "string",
          "name": "_id",
          "type": "string"
        }
      ],
      "name": "getLats",
      "outputs": [
        {
          "internalType": "string",
          "name": "",
          "type": "string"
        }
      ],
      "payable": false,
      "stateMutability": "view",
      "type": "function"
    },
    {
      "constant": true,
      "inputs": [
        {
          "internalType": "string",
          "name": "_id",
          "type": "string"
        }
      ],
      "name": "getState",
      "outputs": [
        {
          "internalType": "string",
          "name": "",
          "type": "string"
        }
      ],
      "payable": false,
      "stateMutability": "view",
      "type": "function"
    },
    {
      "constant": true,
      "inputs": [
        {
          "internalType": "string",
          "name": "_id",
          "type": "string"
        }
      ],
      "name": "getCity",
      "outputs": [
        {
          "internalType": "string",
          "name": "",
          "type": "string"
        }
      ],
      "payable": false,
      "stateMutability": "view",
      "type": "function"
    },
    {
      "constant": true,
      "inputs": [
        {
          "internalType": "string",
          "name": "_id",
          "type": "string"
        }
      ],
      "name": "getLocality",
      "outputs": [
        {
          "internalType": "string",
          "name": "",
          "type": "string"
        }
      ],
      "payable": false,
      "stateMutability": "view",
      "type": "function"
    },
    {
      "constant": true,
      "inputs": [
        {
          "internalType": "string",
          "name": "_id",
          "type": "string"
        }
      ],
      "name": "getBuyingRate",
      "outputs": [
        {
          "internalType": "string",
          "name": "",
          "type": "string"
        }
      ],
      "payable": false,
      "stateMutability": "view",
      "type": "function"
    },
    {
      "constant": true,
      "inputs": [
        {
          "internalType": "string",
          "name": "_id",
          "type": "string"
        }
      ],
      "name": "getLandSize",
      "outputs": [
        {
          "internalType": "string",
          "name": "",
          "type": "string"
        }
      ],
      "payable": false,
      "stateMutability": "view",
      "type": "function"
    },
    {
      "constant": true,
      "inputs": [
        {
          "internalType": "string",
          "name": "_id",
          "type": "string"
        }
      ],
      "name": "getHashValue",
      "outputs": [
        {
          "internalType": "string",
          "name": "",
          "type": "string"
        }
      ],
      "payable": false,
      "stateMutability": "view",
      "type": "function"
    },
    {
      "constant": true,
      "inputs": [
        {
          "internalType": "string",
          "name": "_id",
          "type": "string"
        }
      ],
      "name": "getPlotNo",
      "outputs": [
        {
          "internalType": "string",
          "name": "",
          "type": "string"
        }
      ],
      "payable": false,
      "stateMutability": "view",
      "type": "function"
    },
    {
      "constant": true,
      "inputs": [
        {
          "internalType": "string",
          "name": "_id",
          "type": "string"
        }
      ],
      "name": "getPrice",
      "outputs": [
        {
          "internalType": "string",
          "name": "",
          "type": "string"
        }
      ],
      "payable": false,
      "stateMutability": "view",
      "type": "function"
    },
    {
      "constant": true,
      "inputs": [],
      "name": "getOwners",
      "outputs": [
        {
          "internalType": "address[]",
          "name": "",
          "type": "address[]"
        }
      ],
      "payable": false,
      "stateMutability": "view",
      "type": "function"
    }
  ],
  "bytecode": "0x608060405234801561001057600080fd5b50613a0b806100206000396000f3fe608060405234801561001057600080fd5b50600436106100f55760003560e01c8063524f388911610097578063bc9d637b11610066578063bc9d637b14610e9e578063e081536f14610fd2578063e2f58fba1461172b578063e33f77ca1461185f576100f5565b8063524f388914610aa357806354d07ee914610bd7578063a0e67e2b14610d0b578063acd5402714610d6a576100f5565b80631edbf712116100d35780631edbf712146104965780632e9f5564146105ca5780632f5ac5781461063857806341f28d2c1461096f576100f5565b80630650e971146100fa57806317b7ef071461022e5780631ab4abab14610362575b600080fd5b6101b36004803603602081101561011057600080fd5b810190808035906020019064010000000081111561012d57600080fd5b82018360208201111561013f57600080fd5b8035906020019184600183028401116401000000008311171561016157600080fd5b91908080601f016020809104026020016040519081016040528093929190818152602001838380828437600081840152601f19601f820116905080830192505050505050509192919290505050611993565b6040518080602001828103825283818151815260200191508051906020019080838360005b838110156101f35780820151818401526020810190506101d8565b50505050905090810190601f1680156102205780820380516001836020036101000a031916815260200191505b509250505060405180910390f35b6102e76004803603602081101561024457600080fd5b810190808035906020019064010000000081111561026157600080fd5b82018360208201111561027357600080fd5b8035906020019184600183028401116401000000008311171561029557600080fd5b91908080601f016020809104026020016040519081016040528093929190818152602001838380828437600081840152601f19601f820116905080830192505050505050509192919290505050611aa1565b6040518080602001828103825283818151815260200191508051906020019080838360005b8381101561032757808201518184015260208101905061030c565b50505050905090810190601f1680156103545780820380516001836020036101000a031916815260200191505b509250505060405180910390f35b61041b6004803603602081101561037857600080fd5b810190808035906020019064010000000081111561039557600080fd5b8201836020820111156103a757600080fd5b803590602001918460018302840111640100000000831117156103c957600080fd5b91908080601f016020809104026020016040519081016040528093929190818152602001838380828437600081840152601f19601f820116905080830192505050505050509192919290505050611baf565b6040518080602001828103825283818151815260200191508051906020019080838360005b8381101561045b578082015181840152602081019050610440565b50505050905090810190601f1680156104885780820380516001836020036101000a031916815260200191505b509250505060405180910390f35b61054f600480360360208110156104ac57600080fd5b81019080803590602001906401000000008111156104c957600080fd5b8201836020820111156104db57600080fd5b803590602001918460018302840111640100000000831117156104fd57600080fd5b91908080601f016020809104026020016040519081016040528093929190818152602001838380828437600081840152601f19601f820116905080830192505050505050509192919290505050611cbd565b6040518080602001828103825283818151815260200191508051906020019080838360005b8381101561058f578082015181840152602081019050610574565b50505050905090810190601f1680156105bc5780820380516001836020036101000a031916815260200191505b509250505060405180910390f35b6105f6600480360360208110156105e057600080fd5b8101908080359060200190929190505050611dcb565b604051808273ffffffffffffffffffffffffffffffffffffffff1673ffffffffffffffffffffffffffffffffffffffff16815260200191505060405180910390f35b61096d600480360360c081101561064e57600080fd5b810190808035906020019064010000000081111561066b57600080fd5b82018360208201111561067d57600080fd5b8035906020019184600183028401116401000000008311171561069f57600080fd5b91908080601f016020809104026020016040519081016040528093929190818152602001838380828437600081840152601f19601f8201169050808301925050505050505091929192908035906020019064010000000081111561070257600080fd5b82018360208201111561071457600080fd5b8035906020019184600183028401116401000000008311171561073657600080fd5b91908080601f016020809104026020016040519081016040528093929190818152602001838380828437600081840152601f19601f820116905080830192505050505050509192919290803573ffffffffffffffffffffffffffffffffffffffff169060200190929190803590602001906401000000008111156107b957600080fd5b8201836020820111156107cb57600080fd5b803590602001918460018302840111640100000000831117156107ed57600080fd5b91908080601f016020809104026020016040519081016040528093929190818152602001838380828437600081840152601f19601f8201169050808301925050505050505091929192908035906020019064010000000081111561085057600080fd5b82018360208201111561086257600080fd5b8035906020019184600183028401116401000000008311171561088457600080fd5b91908080601f016020809104026020016040519081016040528093929190818152602001838380828437600081840152601f19601f820116905080830192505050505050509192919290803590602001906401000000008111156108e757600080fd5b8201836020820111156108f957600080fd5b8035906020019184600183028401116401000000008311171561091b57600080fd5b91908080601f016020809104026020016040519081016040528093929190818152602001838380828437600081840152601f19601f820116905080830192505050505050509192919290505050611e07565b005b610a286004803603602081101561098557600080fd5b81019080803590602001906401000000008111156109a257600080fd5b8201836020820111156109b457600080fd5b803590602001918460018302840111640100000000831117156109d657600080fd5b91908080601f016020809104026020016040519081016040528093929190818152602001838380828437600081840152601f19601f820116905080830192505050505050509192919290505050612c53565b6040518080602001828103825283818151815260200191508051906020019080838360005b83811015610a68578082015181840152602081019050610a4d565b50505050905090810190601f168015610a955780820380516001836020036101000a031916815260200191505b509250505060405180910390f35b610b5c60048036036020811015610ab957600080fd5b8101908080359060200190640100000000811115610ad657600080fd5b820183602082011115610ae857600080fd5b80359060200191846001830284011164010000000083111715610b0a57600080fd5b91908080601f016020809104026020016040519081016040528093929190818152602001838380828437600081840152601f19601f820116905080830192505050505050509192919290505050612d61565b6040518080602001828103825283818151815260200191508051906020019080838360005b83811015610b9c578082015181840152602081019050610b81565b50505050905090810190601f168015610bc95780820380516001836020036101000a031916815260200191505b509250505060405180910390f35b610c9060048036036020811015610bed57600080fd5b8101908080359060200190640100000000811115610c0a57600080fd5b820183602082011115610c1c57600080fd5b80359060200191846001830284011164010000000083111715610c3e57600080fd5b91908080601f016020809104026020016040519081016040528093929190818152602001838380828437600081840152601f19601f820116905080830192505050505050509192919290505050612e6f565b6040518080602001828103825283818151815260200191508051906020019080838360005b83811015610cd0578082015181840152602081019050610cb5565b50505050905090810190601f168015610cfd5780820380516001836020036101000a031916815260200191505b509250505060405180910390f35b610d13612f7d565b6040518080602001828103825283818151815260200191508051906020019060200280838360005b83811015610d56578082015181840152602081019050610d3b565b505050509050019250505060405180910390f35b610e2360048036036020811015610d8057600080fd5b8101908080359060200190640100000000811115610d9d57600080fd5b820183602082011115610daf57600080fd5b80359060200191846001830284011164010000000083111715610dd157600080fd5b91908080601f016020809104026020016040519081016040528093929190818152602001838380828437600081840152601f19601f82011690508083019250505050505050919291929050505061300b565b6040518080602001828103825283818151815260200191508051906020019080838360005b83811015610e63578082015181840152602081019050610e48565b50505050905090810190601f168015610e905780820380516001836020036101000a031916815260200191505b509250505060405180910390f35b610f5760048036036020811015610eb457600080fd5b8101908080359060200190640100000000811115610ed157600080fd5b820183602082011115610ee357600080fd5b80359060200191846001830284011164010000000083111715610f0557600080fd5b91908080601f016020809104026020016040519081016040528093929190818152602001838380828437600081840152601f19601f820116905080830192505050505050509192919290505050613119565b6040518080602001828103825283818151815260200191508051906020019080838360005b83811015610f97578082015181840152602081019050610f7c565b50505050905090810190601f168015610fc45780820380516001836020036101000a031916815260200191505b509250505060405180910390f35b61172960048036036101a0811015610fe957600080fd5b81019080803573ffffffffffffffffffffffffffffffffffffffff1690602001909291908035906020019064010000000081111561102657600080fd5b82018360208201111561103857600080fd5b8035906020019184600183028401116401000000008311171561105a57600080fd5b91908080601f016020809104026020016040519081016040528093929190818152602001838380828437600081840152601f19601f820116905080830192505050505050509192919290803590602001906401000000008111156110bd57600080fd5b8201836020820111156110cf57600080fd5b803590602001918460018302840111640100000000831117156110f157600080fd5b91908080601f016020809104026020016040519081016040528093929190818152602001838380828437600081840152601f19601f8201169050808301925050505050505091929192908035906020019064010000000081111561115457600080fd5b82018360208201111561116657600080fd5b8035906020019184600183028401116401000000008311171561118857600080fd5b91908080601f016020809104026020016040519081016040528093929190818152602001838380828437600081840152601f19601f820116905080830192505050505050509192919290803590602001906401000000008111156111eb57600080fd5b8201836020820111156111fd57600080fd5b8035906020019184600183028401116401000000008311171561121f57600080fd5b91908080601f016020809104026020016040519081016040528093929190818152602001838380828437600081840152601f19601f8201169050808301925050505050505091929192908035906020019064010000000081111561128257600080fd5b82018360208201111561129457600080fd5b803590602001918460018302840111640100000000831117156112b657600080fd5b91908080601f016020809104026020016040519081016040528093929190818152602001838380828437600081840152601f19601f8201169050808301925050505050505091929192908035906020019064010000000081111561131957600080fd5b82018360208201111561132b57600080fd5b8035906020019184600183028401116401000000008311171561134d57600080fd5b91908080601f016020809104026020016040519081016040528093929190818152602001838380828437600081840152601f19601f820116905080830192505050505050509192919290803590602001906401000000008111156113b057600080fd5b8201836020820111156113c257600080fd5b803590602001918460018302840111640100000000831117156113e457600080fd5b91908080601f016020809104026020016040519081016040528093929190818152602001838380828437600081840152601f19601f8201169050808301925050505050505091929192908035906020019064010000000081111561144757600080fd5b82018360208201111561145957600080fd5b8035906020019184600183028401116401000000008311171561147b57600080fd5b91908080601f016020809104026020016040519081016040528093929190818152602001838380828437600081840152601f19601f820116905080830192505050505050509192919290803590602001906401000000008111156114de57600080fd5b8201836020820111156114f057600080fd5b8035906020019184600183028401116401000000008311171561151257600080fd5b91908080601f016020809104026020016040519081016040528093929190818152602001838380828437600081840152601f19601f8201169050808301925050505050505091929192908035906020019064010000000081111561157557600080fd5b82018360208201111561158757600080fd5b803590602001918460018302840111640100000000831117156115a957600080fd5b91908080601f016020809104026020016040519081016040528093929190818152602001838380828437600081840152601f19601f8201169050808301925050505050505091929192908035906020019064010000000081111561160c57600080fd5b82018360208201111561161e57600080fd5b8035906020019184600183028401116401000000008311171561164057600080fd5b91908080601f016020809104026020016040519081016040528093929190818152602001838380828437600081840152601f19601f820116905080830192505050505050509192919290803590602001906401000000008111156116a357600080fd5b8201836020820111156116b557600080fd5b803590602001918460018302840111640100000000831117156116d757600080fd5b91908080601f016020809104026020016040519081016040528093929190818152602001838380828437600081840152601f19601f820116905080830192505050505050509192919290505050613227565b005b6117e46004803603602081101561174157600080fd5b810190808035906020019064010000000081111561175e57600080fd5b82018360208201111561177057600080fd5b8035906020019184600183028401116401000000008311171561179257600080fd5b91908080601f016020809104026020016040519081016040528093929190818152602001838380828437600081840152601f19601f8201169050808301925050505050505091929192905050506135cf565b6040518080602001828103825283818151815260200191508051906020019080838360005b83811015611824578082015181840152602081019050611809565b50505050905090810190601f1680156118515780820380516001836020036101000a031916815260200191505b509250505060405180910390f35b6119186004803603602081101561187557600080fd5b810190808035906020019064010000000081111561189257600080fd5b8201836020820111156118a457600080fd5b803590602001918460018302840111640100000000831117156118c657600080fd5b91908080601f016020809104026020016040519081016040528093929190818152602001838380828437600081840152601f19601f8201169050808301925050505050505091929192905050506136dd565b6040518080602001828103825283818151815260200191508051906020019080838360005b8381101561195857808201518184015260208101905061193d565b50505050905090810190601f1680156119855780820380516001836020036101000a031916815260200191505b509250505060405180910390f35b60606001826040518082805190602001908083835b602083106119cb57805182526020820191506020810190506020830392506119a8565b6001836020036101000a03801982511681845116808217855250505050505090500191505090815260200160405180910390206005018054600181600116156101000203166002900480601f016020809104026020016040519081016040528092919081815260200182805460018160011615610100020316600290048015611a955780601f10611a6a57610100808354040283529160200191611a95565b820191906000526020600020905b815481529060010190602001808311611a7857829003601f168201915b50505050509050919050565b60606001826040518082805190602001908083835b60208310611ad95780518252602082019150602081019050602083039250611ab6565b6001836020036101000a03801982511681845116808217855250505050505090500191505090815260200160405180910390206001018054600181600116156101000203166002900480601f016020809104026020016040519081016040528092919081815260200182805460018160011615610100020316600290048015611ba35780601f10611b7857610100808354040283529160200191611ba3565b820191906000526020600020905b815481529060010190602001808311611b8657829003601f168201915b50505050509050919050565b60606001826040518082805190602001908083835b60208310611be75780518252602082019150602081019050602083039250611bc4565b6001836020036101000a03801982511681845116808217855250505050505090500191505090815260200160405180910390206006018054600181600116156101000203166002900480601f016020809104026020016040519081016040528092919081815260200182805460018160011615610100020316600290048015611cb15780601f10611c8657610100808354040283529160200191611cb1565b820191906000526020600020905b815481529060010190602001808311611c9457829003601f168201915b50505050509050919050565b60606001826040518082805190602001908083835b60208310611cf55780518252602082019150602081019050602083039250611cd2565b6001836020036101000a03801982511681845116808217855250505050505090500191505090815260200160405180910390206008018054600181600116156101000203166002900480601f016020809104026020016040519081016040528092919081815260200182805460018160011615610100020316600290048015611dbf5780601f10611d9457610100808354040283529160200191611dbf565b820191906000526020600020905b815481529060010190602001808311611da257829003601f168201915b50505050509050919050565b60028181548110611dd857fe5b906000526020600020016000915054906101000a900473ffffffffffffffffffffffffffffffffffffffff1681565b611e0f6137eb565b6001866040518082805190602001908083835b60208310611e455780518252602082019150602081019050602083039250611e22565b6001836020036101000a0380198251168184511680821785525050505050509050019150509081526020016040518091039020604051806101800160405290816000820160009054906101000a900473ffffffffffffffffffffffffffffffffffffffff1673ffffffffffffffffffffffffffffffffffffffff1673ffffffffffffffffffffffffffffffffffffffff168152602001600182018054600181600116156101000203166002900480601f016020809104026020016040519081016040528092919081815260200182805460018160011615610100020316600290048015611f735780601f10611f4857610100808354040283529160200191611f73565b820191906000526020600020905b815481529060010190602001808311611f5657829003601f168201915b50505050508152602001600282018054600181600116156101000203166002900480601f0160208091040260200160405190810160405280929190818152602001828054600181600116156101000203166002900480156120155780601f10611fea57610100808354040283529160200191612015565b820191906000526020600020905b815481529060010190602001808311611ff857829003601f168201915b50505050508152602001600382018054600181600116156101000203166002900480601f0160208091040260200160405190810160405280929190818152602001828054600181600116156101000203166002900480156120b75780601f1061208c576101008083540402835291602001916120b7565b820191906000526020600020905b81548152906001019060200180831161209a57829003601f168201915b50505050508152602001600482018054600181600116156101000203166002900480601f0160208091040260200160405190810160405280929190818152602001828054600181600116156101000203166002900480156121595780601f1061212e57610100808354040283529160200191612159565b820191906000526020600020905b81548152906001019060200180831161213c57829003601f168201915b50505050508152602001600582018054600181600116156101000203166002900480601f0160208091040260200160405190810160405280929190818152602001828054600181600116156101000203166002900480156121fb5780601f106121d0576101008083540402835291602001916121fb565b820191906000526020600020905b8154815290600101906020018083116121de57829003601f168201915b50505050508152602001600682018054600181600116156101000203166002900480601f01602080910402602001604051908101604052809291908181526020018280546001816001161561010002031660029004801561229d5780601f106122725761010080835404028352916020019161229d565b820191906000526020600020905b81548152906001019060200180831161228057829003601f168201915b50505050508152602001600782018054600181600116156101000203166002900480601f01602080910402602001604051908101604052809291908181526020018280546001816001161561010002031660029004801561233f5780601f106123145761010080835404028352916020019161233f565b820191906000526020600020905b81548152906001019060200180831161232257829003601f168201915b50505050508152602001600882018054600181600116156101000203166002900480601f0160208091040260200160405190810160405280929190818152602001828054600181600116156101000203166002900480156123e15780601f106123b6576101008083540402835291602001916123e1565b820191906000526020600020905b8154815290600101906020018083116123c457829003601f168201915b50505050508152602001600982018054600181600116156101000203166002900480601f0160208091040260200160405190810160405280929190818152602001828054600181600116156101000203166002900480156124835780601f1061245857610100808354040283529160200191612483565b820191906000526020600020905b81548152906001019060200180831161246657829003601f168201915b50505050508152602001600a82018054600181600116156101000203166002900480601f0160208091040260200160405190810160405280929190818152602001828054600181600116156101000203166002900480156125255780601f106124fa57610100808354040283529160200191612525565b820191906000526020600020905b81548152906001019060200180831161250857829003601f168201915b50505050508152602001600b82018054600181600116156101000203166002900480601f0160208091040260200160405190810160405280929190818152602001828054600181600116156101000203166002900480156125c75780601f1061259c576101008083540402835291602001916125c7565b820191906000526020600020905b8154815290600101906020018083116125aa57829003601f168201915b505050505081525050905084816000019073ffffffffffffffffffffffffffffffffffffffff16908173ffffffffffffffffffffffffffffffffffffffff1681525050838160200181905250828160400181905250806001886040518082805190602001908083835b602083106126535780518252602082019150602081019050602083039250612630565b6001836020036101000a038019825116818451168082178552505050505050905001915050908152602001604051809103902060008201518160000160006101000a81548173ffffffffffffffffffffffffffffffffffffffff021916908373ffffffffffffffffffffffffffffffffffffffff16021790555060208201518160010190805190602001906126e9929190613862565b506040820151816002019080519060200190612706929190613862565b506060820151816003019080519060200190612723929190613862565b506080820151816004019080519060200190612740929190613862565b5060a082015181600501908051906020019061275d929190613862565b5060c082015181600601908051906020019061277a929190613862565b5060e0820151816007019080519060200190612797929190613862565b506101008201518160080190805190602001906127b5929190613862565b506101208201518160090190805190602001906127d3929190613862565b5061014082015181600a0190805190602001906127f1929190613862565b5061016082015181600b01908051906020019061280f929190613862565b509050506001826040518082805190602001908083835b602083106128495780518252602082019150602081019050602083039250612826565b6001836020036101000a03801982511681845116808217855250505050505090500191505090815260200160405180910390206001876040518082805190602001908083835b602083106128b2578051825260208201915060208101905060208303925061288f565b6001836020036101000a03801982511681845116808217855250505050505090500191505090815260200160405180910390206000820160009054906101000a900473ffffffffffffffffffffffffffffffffffffffff168160000160006101000a81548173ffffffffffffffffffffffffffffffffffffffff021916908373ffffffffffffffffffffffffffffffffffffffff160217905550600182018160010190805460018160011615610100020316600290046129739291906138e2565b506002820181600201908054600181600116156101000203166002900461299b9291906138e2565b50600382018160030190805460018160011615610100020316600290046129c39291906138e2565b50600482018160040190805460018160011615610100020316600290046129eb9291906138e2565b5060058201816005019080546001816001161561010002031660029004612a139291906138e2565b5060068201816006019080546001816001161561010002031660029004612a3b9291906138e2565b5060078201816007019080546001816001161561010002031660029004612a639291906138e2565b5060088201816008019080546001816001161561010002031660029004612a8b9291906138e2565b5060098201816009019080546001816001161561010002031660029004612ab39291906138e2565b50600a820181600a019080546001816001161561010002031660029004612adb9291906138e2565b50600b820181600b019080546001816001161561010002031660029004612b039291906138e2565b509050506001826040518082805190602001908083835b60208310612b3d5780518252602082019150602081019050602083039250612b1a565b6001836020036101000a0380198251168184511680821785525050505050509050019150509081526020016040518091039020600080820160006101000a81549073ffffffffffffffffffffffffffffffffffffffff0219169055600182016000612ba89190613969565b600282016000612bb89190613969565b600382016000612bc89190613969565b600482016000612bd89190613969565b600582016000612be89190613969565b600682016000612bf89190613969565b600782016000612c089190613969565b600882016000612c189190613969565b600982016000612c289190613969565b600a82016000612c389190613969565b600b82016000612c489190613969565b505050505050505050565b60606001826040518082805190602001908083835b60208310612c8b5780518252602082019150602081019050602083039250612c68565b6001836020036101000a03801982511681845116808217855250505050505090500191505090815260200160405180910390206002018054600181600116156101000203166002900480601f016020809104026020016040519081016040528092919081815260200182805460018160011615610100020316600290048015612d555780601f10612d2a57610100808354040283529160200191612d55565b820191906000526020600020905b815481529060010190602001808311612d3857829003601f168201915b50505050509050919050565b60606001826040518082805190602001908083835b60208310612d995780518252602082019150602081019050602083039250612d76565b6001836020036101000a0380198251168184511680821785525050505050509050019150509081526020016040518091039020600b018054600181600116156101000203166002900480601f016020809104026020016040519081016040528092919081815260200182805460018160011615610100020316600290048015612e635780601f10612e3857610100808354040283529160200191612e63565b820191906000526020600020905b815481529060010190602001808311612e4657829003601f168201915b50505050509050919050565b60606001826040518082805190602001908083835b60208310612ea75780518252602082019150602081019050602083039250612e84565b6001836020036101000a03801982511681845116808217855250505050505090500191505090815260200160405180910390206009018054600181600116156101000203166002900480601f016020809104026020016040519081016040528092919081815260200182805460018160011615610100020316600290048015612f715780601f10612f4657610100808354040283529160200191612f71565b820191906000526020600020905b815481529060010190602001808311612f5457829003601f168201915b50505050509050919050565b6060600280548060200260200160405190810160405280929190818152602001828054801561300157602002820191906000526020600020905b8160009054906101000a900473ffffffffffffffffffffffffffffffffffffffff1673ffffffffffffffffffffffffffffffffffffffff1681526020019060010190808311612fb7575b5050505050905090565b60606001826040518082805190602001908083835b602083106130435780518252602082019150602081019050602083039250613020565b6001836020036101000a03801982511681845116808217855250505050505090500191505090815260200160405180910390206007018054600181600116156101000203166002900480601f01602080910402602001604051908101604052809291908181526020018280546001816001161561010002031660029004801561310d5780601f106130e25761010080835404028352916020019161310d565b820191906000526020600020905b8154815290600101906020018083116130f057829003601f168201915b50505050509050919050565b60606001826040518082805190602001908083835b60208310613151578051825260208201915060208101905060208303925061312e565b6001836020036101000a0380198251168184511680821785525050505050509050019150509081526020016040518091039020600a018054600181600116156101000203166002900480601f01602080910402602001604051908101604052809291908181526020018280546001816001161561010002031660029004801561321b5780601f106131f05761010080835404028352916020019161321b565b820191906000526020600020905b8154815290600101906020018083116131fe57829003601f168201915b50505050509050919050565b61322f6137eb565b8d816000019073ffffffffffffffffffffffffffffffffffffffff16908173ffffffffffffffffffffffffffffffffffffffff16815250508b81602001819052508a8160400181905250898160600181905250888160800181905250878160a00181905250868160c00181905250858160e00181905250848161010001819052508381610120018190525082816101400181905250818161016001819052508060018e6040518082805190602001908083835b6020831061330557805182526020820191506020810190506020830392506132e2565b6001836020036101000a038019825116818451168082178552505050505050905001915050908152602001604051809103902060008201518160000160006101000a81548173ffffffffffffffffffffffffffffffffffffffff021916908373ffffffffffffffffffffffffffffffffffffffff160217905550602082015181600101908051906020019061339b929190613862565b5060408201518160020190805190602001906133b8929190613862565b5060608201518160030190805190602001906133d5929190613862565b5060808201518160040190805190602001906133f2929190613862565b5060a082015181600501908051906020019061340f929190613862565b5060c082015181600601908051906020019061342c929190613862565b5060e0820151816007019080519060200190613449929190613862565b50610100820151816008019080519060200190613467929190613862565b50610120820151816009019080519060200190613485929190613862565b5061014082015181600a0190805190602001906134a3929190613862565b5061016082015181600b0190805190602001906134c1929190613862565b509050506000806000836000015173ffffffffffffffffffffffffffffffffffffffff1673ffffffffffffffffffffffffffffffffffffffff1681526020019081526020016000205414156135bf5760028e90806001815401808255809150509060018203906000526020600020016000909192909190916101000a81548173ffffffffffffffffffffffffffffffffffffffff021916908373ffffffffffffffffffffffffffffffffffffffff160217905550506001600080836000015173ffffffffffffffffffffffffffffffffffffffff1673ffffffffffffffffffffffffffffffffffffffff168152602001908152602001600020819055505b5050505050505050505050505050565b60606001826040518082805190602001908083835b6020831061360757805182526020820191506020810190506020830392506135e4565b6001836020036101000a03801982511681845116808217855250505050505090500191505090815260200160405180910390206003018054600181600116156101000203166002900480601f0160208091040260200160405190810160405280929190818152602001828054600181600116156101000203166002900480156136d15780601f106136a6576101008083540402835291602001916136d1565b820191906000526020600020905b8154815290600101906020018083116136b457829003601f168201915b50505050509050919050565b60606001826040518082805190602001908083835b6020831061371557805182526020820191506020810190506020830392506136f2565b6001836020036101000a03801982511681845116808217855250505050505090500191505090815260200160405180910390206004018054600181600116156101000203166002900480601f0160208091040260200160405190810160405280929190818152602001828054600181600116156101000203166002900480156137df5780601f106137b4576101008083540402835291602001916137df565b820191906000526020600020905b8154815290600101906020018083116137c257829003601f168201915b50505050509050919050565b604051806101800160405280600073ffffffffffffffffffffffffffffffffffffffff16815260200160608152602001606081526020016060815260200160608152602001606081526020016060815260200160608152602001606081526020016060815260200160608152602001606081525090565b828054600181600116156101000203166002900490600052602060002090601f016020900481019282601f106138a357805160ff19168380011785556138d1565b828001600101855582156138d1579182015b828111156138d05782518255916020019190600101906138b5565b5b5090506138de91906139b1565b5090565b828054600181600116156101000203166002900490600052602060002090601f016020900481019282601f1061391b5780548555613958565b8280016001018555821561395857600052602060002091601f016020900482015b8281111561395757825482559160010191906001019061393c565b5b50905061396591906139b1565b5090565b50805460018160011615610100020316600290046000825580601f1061398f57506139ae565b601f0160209004906000526020600020908101906139ad91906139b1565b5b50565b6139d391905b808211156139cf5760008160009055506001016139b7565b5090565b9056fea265627a7a72315820eeed2482ed5ca5d0405fd3a03dad0dd88370c9f0eb2740390ccd91c502ed86c764736f6c63430005100032",
  "source": "// SimpleStorage.sol\r\npragma solidity >=0.4.21 <0.7.1;\r\n\r\ncontract SimpleStorage {\r\n  struct OwnerStruct{\r\n    address id;\r\n    string firstName;\r\n    string lastName;\r\n    string lats;\r\n    string state;\r\n    string city;\r\n    string locality;\r\n    string plotNo;\r\n    string buyingRate;\r\n    string landSize;\r\n    string hashValue;\r\n    string price;\r\n  }\r\n\r\n  mapping(address => int) ownerList;\r\n  mapping(string => OwnerStruct) lands;\r\n  \r\n\r\n  address[] public ownerAccts;\r\n\r\n  function setOwner(address _address, string memory _id, string memory _fName,\r\n  string memory _lName, string memory _lats, string memory _state, string memory _city, \r\n  string memory _locality, string memory _plotNo,\r\n  string memory _buyingRate, string memory _landSize, string memory _hashValue, string memory _price) public {\r\n      OwnerStruct memory owner;\r\n      owner.id = _address;\r\n      owner.firstName = _fName;\r\n      owner.lastName = _lName;\r\n      owner.lats = _lats;\r\n      owner.state = _state;\r\n      owner.city = _city;\r\n      owner.locality = _locality;\r\n      owner.plotNo = _plotNo;\r\n      owner.buyingRate = _buyingRate;\r\n      owner.landSize = _landSize;\r\n      owner.hashValue = _hashValue;\r\n      owner.price = _price;\r\n      lands[_id] = owner;\r\n      if(ownerList[owner.id] == 0) {\r\n        ownerAccts.push(_address);\r\n        ownerList[owner.id] = 1;  \r\n      }\r\n  }\r\n\r\n  function transaction(string memory _buyerID, string memory _sellerID, \r\n  address _address, string memory _fName, string memory _lName, string memory _sellerLastID) public {\r\n      OwnerStruct memory owner;\r\n      owner = lands[_sellerID];\r\n      owner.id = _address;\r\n      owner.firstName = _fName;\r\n      owner.lastName = _lName;\r\n      lands[_buyerID] = owner;\r\n      lands[_sellerID] = lands[_sellerLastID];\r\n      delete lands[_sellerLastID];\r\n  }\r\n  \r\n  function getfName(string memory _id) public view returns (string memory){\r\n      return (lands[_id].firstName);\r\n  }\r\n\r\n  function getlName(string memory _id) public view returns (string memory){\r\n      return (lands[_id].lastName);\r\n  }\r\n\r\n  function getLats(string memory _id) public view returns (string memory){\r\n      return (lands[_id].lats);\r\n  }\r\n\r\n  function getState(string memory _id) public view returns (string memory){\r\n      return (lands[_id].state);\r\n  }\r\n\r\n  function getCity(string memory _id) public view returns (string memory){\r\n      return (lands[_id].city);\r\n  }\r\n\r\n  function getLocality(string memory _id) public view returns (string memory){\r\n      return (lands[_id].locality);\r\n  }\r\n\r\n  function getBuyingRate(string memory _id) public view returns (string memory){\r\n      return (lands[_id].buyingRate);\r\n  }\r\n\r\n  function getLandSize(string memory _id) public view returns (string memory){\r\n      return (lands[_id].landSize);\r\n  }\r\n\r\n  function getHashValue(string memory _id) public view returns (string memory){\r\n      return (lands[_id].hashValue);\r\n  }\r\n\r\n  function getPlotNo(string memory _id) public view returns (string memory){\r\n      return (lands[_id].plotNo);\r\n  }\r\n\r\n  function getPrice(string memory _id) public view returns (string memory){\r\n      return (lands[_id].price);\r\n  }\r\n\r\n  function getOwners() public view returns (address[] memory){\r\n      return ownerAccts;\r\n  }\r\n}",
  "sourcePath": "F:/Web Development/React/GiRecords/blockchain/contracts/SimpleStorage.sol",
  "compiler": {
    "name": "solc",
    "version": "0.5.16+commit.9c3226ce.Emscripten.clang"
  },
  "schemaVersion": "3.2.3",
  "updatedAt": "2020-10-01T04:13:58.883Z",
  "networkType": "ethereum",
  "devdoc": {
    "methods": {}
  },
  "userdoc": {
    "methods": {}
  }
}