{
  "contractName": "SimpleStorage",
  "abi": [
    {
      "constant": true,
      "inputs": [
        {
          "internalType": "uint256",
          "name": "",
          "type": "uint256"
        }
      ],
      "name": "ownerAccts",
      "outputs": [
        {
          "internalType": "string",
          "name": "",
          "type": "string"
        }
      ],
      "payable": false,
      "stateMutability": "view",
      "type": "function"
    },
    {
      "constant": false,
      "inputs": [
        {
          "internalType": "string",
          "name": "_address",
          "type": "string"
        },
        {
          "internalType": "string",
          "name": "_id",
          "type": "string"
        },
        {
          "internalType": "string",
          "name": "_fName",
          "type": "string"
        },
        {
          "internalType": "string",
          "name": "_lName",
          "type": "string"
        },
        {
          "internalType": "string",
          "name": "_lats",
          "type": "string"
        },
        {
          "internalType": "string",
          "name": "_state",
          "type": "string"
        },
        {
          "internalType": "string",
          "name": "_city",
          "type": "string"
        },
        {
          "internalType": "string",
          "name": "_locality",
          "type": "string"
        },
        {
          "internalType": "string",
          "name": "_plotNo",
          "type": "string"
        },
        {
          "internalType": "string",
          "name": "_buyingRate",
          "type": "string"
        },
        {
          "internalType": "string",
          "name": "_landSize",
          "type": "string"
        },
        {
          "internalType": "string",
          "name": "_hashValue",
          "type": "string"
        },
        {
          "internalType": "string",
          "name": "_price",
          "type": "string"
        }
      ],
      "name": "setOwner",
      "outputs": [],
      "payable": false,
      "stateMutability": "nonpayable",
      "type": "function"
    },
    {
      "constant": false,
      "inputs": [
        {
          "internalType": "string",
          "name": "_buyerID",
          "type": "string"
        },
        {
          "internalType": "string",
          "name": "_sellerID",
          "type": "string"
        },
        {
          "internalType": "string",
          "name": "_address",
          "type": "string"
        },
        {
          "internalType": "string",
          "name": "_fName",
          "type": "string"
        },
        {
          "internalType": "string",
          "name": "_lName",
          "type": "string"
        },
        {
          "internalType": "string",
          "name": "_sellerLastID",
          "type": "string"
        }
      ],
      "name": "transaction",
      "outputs": [],
      "payable": false,
      "stateMutability": "nonpayable",
      "type": "function"
    },
    {
      "constant": true,
      "inputs": [
        {
          "internalType": "string",
          "name": "_id",
          "type": "string"
        }
      ],
      "name": "getfName",
      "outputs": [
        {
          "internalType": "string",
          "name": "",
          "type": "string"
        }
      ],
      "payable": false,
      "stateMutability": "view",
      "type": "function"
    },
    {
      "constant": true,
      "inputs": [
        {
          "internalType": "string",
          "name": "_id",
          "type": "string"
        }
      ],
      "name": "getlName",
      "outputs": [
        {
          "internalType": "string",
          "name": "",
          "type": "string"
        }
      ],
      "payable": false,
      "stateMutability": "view",
      "type": "function"
    },
    {
      "constant": true,
      "inputs": [
        {
          "internalType": "string",
          "name": "_id",
          "type": "string"
        }
      ],
      "name": "getLats",
      "outputs": [
        {
          "internalType": "string",
          "name": "",
          "type": "string"
        }
      ],
      "payable": false,
      "stateMutability": "view",
      "type": "function"
    },
    {
      "constant": true,
      "inputs": [
        {
          "internalType": "string",
          "name": "_id",
          "type": "string"
        }
      ],
      "name": "getState",
      "outputs": [
        {
          "internalType": "string",
          "name": "",
          "type": "string"
        }
      ],
      "payable": false,
      "stateMutability": "view",
      "type": "function"
    },
    {
      "constant": true,
      "inputs": [
        {
          "internalType": "string",
          "name": "_id",
          "type": "string"
        }
      ],
      "name": "getCity",
      "outputs": [
        {
          "internalType": "string",
          "name": "",
          "type": "string"
        }
      ],
      "payable": false,
      "stateMutability": "view",
      "type": "function"
    },
    {
      "constant": true,
      "inputs": [
        {
          "internalType": "string",
          "name": "_id",
          "type": "string"
        }
      ],
      "name": "getLocality",
      "outputs": [
        {
          "internalType": "string",
          "name": "",
          "type": "string"
        }
      ],
      "payable": false,
      "stateMutability": "view",
      "type": "function"
    },
    {
      "constant": true,
      "inputs": [
        {
          "internalType": "string",
          "name": "_id",
          "type": "string"
        }
      ],
      "name": "getBuyingRate",
      "outputs": [
        {
          "internalType": "string",
          "name": "",
          "type": "string"
        }
      ],
      "payable": false,
      "stateMutability": "view",
      "type": "function"
    },
    {
      "constant": true,
      "inputs": [
        {
          "internalType": "string",
          "name": "_id",
          "type": "string"
        }
      ],
      "name": "getLandSize",
      "outputs": [
        {
          "internalType": "string",
          "name": "",
          "type": "string"
        }
      ],
      "payable": false,
      "stateMutability": "view",
      "type": "function"
    },
    {
      "constant": true,
      "inputs": [
        {
          "internalType": "string",
          "name": "_id",
          "type": "string"
        }
      ],
      "name": "getHashValue",
      "outputs": [
        {
          "internalType": "string",
          "name": "",
          "type": "string"
        }
      ],
      "payable": false,
      "stateMutability": "view",
      "type": "function"
    },
    {
      "constant": true,
      "inputs": [
        {
          "internalType": "string",
          "name": "_id",
          "type": "string"
        }
      ],
      "name": "getPlotNo",
      "outputs": [
        {
          "internalType": "string",
          "name": "",
          "type": "string"
        }
      ],
      "payable": false,
      "stateMutability": "view",
      "type": "function"
    },
    {
      "constant": true,
      "inputs": [
        {
          "internalType": "string",
          "name": "_id",
          "type": "string"
        }
      ],
      "name": "getPrice",
      "outputs": [
        {
          "internalType": "string",
          "name": "",
          "type": "string"
        }
      ],
      "payable": false,
      "stateMutability": "view",
      "type": "function"
    }
  ],
  "bytecode": "0x608060405234801561001057600080fd5b50613b77806100206000396000f3fe608060405234801561001057600080fd5b50600436106100ea5760003560e01c8063524f38891161008c578063bc9d637b11610066578063bc9d637b14610ee4578063e2f58fba14611018578063e33f77ca1461114c578063f9243ec714611280576100ea565b8063524f388914610b4857806354d07ee914610c7c578063acd5402714610db0576100ea565b80631c482f37116100c85780631c482f371461048b5780631edbf712146108395780632e9f55641461096d57806341f28d2c14610a14576100ea565b80630650e971146100ef57806317b7ef07146102235780631ab4abab14610357575b600080fd5b6101a86004803603602081101561010557600080fd5b810190808035906020019064010000000081111561012257600080fd5b82018360208201111561013457600080fd5b8035906020019184600183028401116401000000008311171561015657600080fd5b91908080601f016020809104026020016040519081016040528093929190818152602001838380828437600081840152601f19601f820116905080830192505050505050509192919290505050611a50565b6040518080602001828103825283818151815260200191508051906020019080838360005b838110156101e85780820151818401526020810190506101cd565b50505050905090810190601f1680156102155780820380516001836020036101000a031916815260200191505b509250505060405180910390f35b6102dc6004803603602081101561023957600080fd5b810190808035906020019064010000000081111561025657600080fd5b82018360208201111561026857600080fd5b8035906020019184600183028401116401000000008311171561028a57600080fd5b91908080601f016020809104026020016040519081016040528093929190818152602001838380828437600081840152601f19601f820116905080830192505050505050509192919290505050611b5e565b6040518080602001828103825283818151815260200191508051906020019080838360005b8381101561031c578082015181840152602081019050610301565b50505050905090810190601f1680156103495780820380516001836020036101000a031916815260200191505b509250505060405180910390f35b6104106004803603602081101561036d57600080fd5b810190808035906020019064010000000081111561038a57600080fd5b82018360208201111561039c57600080fd5b803590602001918460018302840111640100000000831117156103be57600080fd5b91908080601f016020809104026020016040519081016040528093929190818152602001838380828437600081840152601f19601f820116905080830192505050505050509192919290505050611c6c565b6040518080602001828103825283818151815260200191508051906020019080838360005b83811015610450578082015181840152602081019050610435565b50505050905090810190601f16801561047d5780820380516001836020036101000a031916815260200191505b509250505060405180910390f35b610837600480360360c08110156104a157600080fd5b81019080803590602001906401000000008111156104be57600080fd5b8201836020820111156104d057600080fd5b803590602001918460018302840111640100000000831117156104f257600080fd5b91908080601f016020809104026020016040519081016040528093929190818152602001838380828437600081840152601f19601f8201169050808301925050505050505091929192908035906020019064010000000081111561055557600080fd5b82018360208201111561056757600080fd5b8035906020019184600183028401116401000000008311171561058957600080fd5b91908080601f016020809104026020016040519081016040528093929190818152602001838380828437600081840152601f19601f820116905080830192505050505050509192919290803590602001906401000000008111156105ec57600080fd5b8201836020820111156105fe57600080fd5b8035906020019184600183028401116401000000008311171561062057600080fd5b91908080601f016020809104026020016040519081016040528093929190818152602001838380828437600081840152601f19601f8201169050808301925050505050505091929192908035906020019064010000000081111561068357600080fd5b82018360208201111561069557600080fd5b803590602001918460018302840111640100000000831117156106b757600080fd5b91908080601f016020809104026020016040519081016040528093929190818152602001838380828437600081840152601f19601f8201169050808301925050505050505091929192908035906020019064010000000081111561071a57600080fd5b82018360208201111561072c57600080fd5b8035906020019184600183028401116401000000008311171561074e57600080fd5b91908080601f016020809104026020016040519081016040528093929190818152602001838380828437600081840152601f19601f820116905080830192505050505050509192919290803590602001906401000000008111156107b157600080fd5b8201836020820111156107c357600080fd5b803590602001918460018302840111640100000000831117156107e557600080fd5b91908080601f016020809104026020016040519081016040528093929190818152602001838380828437600081840152601f19601f820116905080830192505050505050509192919290505050611d7a565b005b6108f26004803603602081101561084f57600080fd5b810190808035906020019064010000000081111561086c57600080fd5b82018360208201111561087e57600080fd5b803590602001918460018302840111640100000000831117156108a057600080fd5b91908080601f016020809104026020016040519081016040528093929190818152602001838380828437600081840152601f19601f820116905080830192505050505050509192919290505050612b63565b6040518080602001828103825283818151815260200191508051906020019080838360005b83811015610932578082015181840152602081019050610917565b50505050905090810190601f16801561095f5780820380516001836020036101000a031916815260200191505b509250505060405180910390f35b6109996004803603602081101561098357600080fd5b8101908080359060200190929190505050612c71565b6040518080602001828103825283818151815260200191508051906020019080838360005b838110156109d95780820151818401526020810190506109be565b50505050905090810190601f168015610a065780820380516001836020036101000a031916815260200191505b509250505060405180910390f35b610acd60048036036020811015610a2a57600080fd5b8101908080359060200190640100000000811115610a4757600080fd5b820183602082011115610a5957600080fd5b80359060200191846001830284011164010000000083111715610a7b57600080fd5b91908080601f016020809104026020016040519081016040528093929190818152602001838380828437600081840152601f19601f820116905080830192505050505050509192919290505050612d2a565b6040518080602001828103825283818151815260200191508051906020019080838360005b83811015610b0d578082015181840152602081019050610af2565b50505050905090810190601f168015610b3a5780820380516001836020036101000a031916815260200191505b509250505060405180910390f35b610c0160048036036020811015610b5e57600080fd5b8101908080359060200190640100000000811115610b7b57600080fd5b820183602082011115610b8d57600080fd5b80359060200191846001830284011164010000000083111715610baf57600080fd5b91908080601f016020809104026020016040519081016040528093929190818152602001838380828437600081840152601f19601f820116905080830192505050505050509192919290505050612e38565b6040518080602001828103825283818151815260200191508051906020019080838360005b83811015610c41578082015181840152602081019050610c26565b50505050905090810190601f168015610c6e5780820380516001836020036101000a031916815260200191505b509250505060405180910390f35b610d3560048036036020811015610c9257600080fd5b8101908080359060200190640100000000811115610caf57600080fd5b820183602082011115610cc157600080fd5b80359060200191846001830284011164010000000083111715610ce357600080fd5b91908080601f016020809104026020016040519081016040528093929190818152602001838380828437600081840152601f19601f820116905080830192505050505050509192919290505050612f46565b6040518080602001828103825283818151815260200191508051906020019080838360005b83811015610d75578082015181840152602081019050610d5a565b50505050905090810190601f168015610da25780820380516001836020036101000a031916815260200191505b509250505060405180910390f35b610e6960048036036020811015610dc657600080fd5b8101908080359060200190640100000000811115610de357600080fd5b820183602082011115610df557600080fd5b80359060200191846001830284011164010000000083111715610e1757600080fd5b91908080601f016020809104026020016040519081016040528093929190818152602001838380828437600081840152601f19601f820116905080830192505050505050509192919290505050613054565b6040518080602001828103825283818151815260200191508051906020019080838360005b83811015610ea9578082015181840152602081019050610e8e565b50505050905090810190601f168015610ed65780820380516001836020036101000a031916815260200191505b509250505060405180910390f35b610f9d60048036036020811015610efa57600080fd5b8101908080359060200190640100000000811115610f1757600080fd5b820183602082011115610f2957600080fd5b80359060200191846001830284011164010000000083111715610f4b57600080fd5b91908080601f016020809104026020016040519081016040528093929190818152602001838380828437600081840152601f19601f820116905080830192505050505050509192919290505050613162565b6040518080602001828103825283818151815260200191508051906020019080838360005b83811015610fdd578082015181840152602081019050610fc2565b50505050905090810190601f16801561100a5780820380516001836020036101000a031916815260200191505b509250505060405180910390f35b6110d16004803603602081101561102e57600080fd5b810190808035906020019064010000000081111561104b57600080fd5b82018360208201111561105d57600080fd5b8035906020019184600183028401116401000000008311171561107f57600080fd5b91908080601f016020809104026020016040519081016040528093929190818152602001838380828437600081840152601f19601f820116905080830192505050505050509192919290505050613270565b6040518080602001828103825283818151815260200191508051906020019080838360005b838110156111115780820151818401526020810190506110f6565b50505050905090810190601f16801561113e5780820380516001836020036101000a031916815260200191505b509250505060405180910390f35b6112056004803603602081101561116257600080fd5b810190808035906020019064010000000081111561117f57600080fd5b82018360208201111561119157600080fd5b803590602001918460018302840111640100000000831117156111b357600080fd5b91908080601f016020809104026020016040519081016040528093929190818152602001838380828437600081840152601f19601f82011690508083019250505050505050919291929050505061337e565b6040518080602001828103825283818151815260200191508051906020019080838360005b8381101561124557808201518184015260208101905061122a565b50505050905090810190601f1680156112725780820380516001836020036101000a031916815260200191505b509250505060405180910390f35b611a4e60048036036101a081101561129757600080fd5b81019080803590602001906401000000008111156112b457600080fd5b8201836020820111156112c657600080fd5b803590602001918460018302840111640100000000831117156112e857600080fd5b91908080601f016020809104026020016040519081016040528093929190818152602001838380828437600081840152601f19601f8201169050808301925050505050505091929192908035906020019064010000000081111561134b57600080fd5b82018360208201111561135d57600080fd5b8035906020019184600183028401116401000000008311171561137f57600080fd5b91908080601f016020809104026020016040519081016040528093929190818152602001838380828437600081840152601f19601f820116905080830192505050505050509192919290803590602001906401000000008111156113e257600080fd5b8201836020820111156113f457600080fd5b8035906020019184600183028401116401000000008311171561141657600080fd5b91908080601f016020809104026020016040519081016040528093929190818152602001838380828437600081840152601f19601f8201169050808301925050505050505091929192908035906020019064010000000081111561147957600080fd5b82018360208201111561148b57600080fd5b803590602001918460018302840111640100000000831117156114ad57600080fd5b91908080601f016020809104026020016040519081016040528093929190818152602001838380828437600081840152601f19601f8201169050808301925050505050505091929192908035906020019064010000000081111561151057600080fd5b82018360208201111561152257600080fd5b8035906020019184600183028401116401000000008311171561154457600080fd5b91908080601f016020809104026020016040519081016040528093929190818152602001838380828437600081840152601f19601f820116905080830192505050505050509192919290803590602001906401000000008111156115a757600080fd5b8201836020820111156115b957600080fd5b803590602001918460018302840111640100000000831117156115db57600080fd5b91908080601f016020809104026020016040519081016040528093929190818152602001838380828437600081840152601f19601f8201169050808301925050505050505091929192908035906020019064010000000081111561163e57600080fd5b82018360208201111561165057600080fd5b8035906020019184600183028401116401000000008311171561167257600080fd5b91908080601f016020809104026020016040519081016040528093929190818152602001838380828437600081840152601f19601f820116905080830192505050505050509192919290803590602001906401000000008111156116d557600080fd5b8201836020820111156116e757600080fd5b8035906020019184600183028401116401000000008311171561170957600080fd5b91908080601f016020809104026020016040519081016040528093929190818152602001838380828437600081840152601f19601f8201169050808301925050505050505091929192908035906020019064010000000081111561176c57600080fd5b82018360208201111561177e57600080fd5b803590602001918460018302840111640100000000831117156117a057600080fd5b91908080601f016020809104026020016040519081016040528093929190818152602001838380828437600081840152601f19601f8201169050808301925050505050505091929192908035906020019064010000000081111561180357600080fd5b82018360208201111561181557600080fd5b8035906020019184600183028401116401000000008311171561183757600080fd5b91908080601f016020809104026020016040519081016040528093929190818152602001838380828437600081840152601f19601f8201169050808301925050505050505091929192908035906020019064010000000081111561189a57600080fd5b8201836020820111156118ac57600080fd5b803590602001918460018302840111640100000000831117156118ce57600080fd5b91908080601f016020809104026020016040519081016040528093929190818152602001838380828437600081840152601f19601f8201169050808301925050505050505091929192908035906020019064010000000081111561193157600080fd5b82018360208201111561194357600080fd5b8035906020019184600183028401116401000000008311171561196557600080fd5b91908080601f016020809104026020016040519081016040528093929190818152602001838380828437600081840152601f19601f820116905080830192505050505050509192919290803590602001906401000000008111156119c857600080fd5b8201836020820111156119da57600080fd5b803590602001918460018302840111640100000000831117156119fc57600080fd5b91908080601f016020809104026020016040519081016040528093929190818152602001838380828437600081840152601f19601f82011690508083019250505050505050919291929050505061348c565b005b60606001826040518082805190602001908083835b60208310611a885780518252602082019150602081019050602083039250611a65565b6001836020036101000a03801982511681845116808217855250505050505090500191505090815260200160405180910390206005018054600181600116156101000203166002900480601f016020809104026020016040519081016040528092919081815260200182805460018160011615610100020316600290048015611b525780601f10611b2757610100808354040283529160200191611b52565b820191906000526020600020905b815481529060010190602001808311611b3557829003601f168201915b50505050509050919050565b60606001826040518082805190602001908083835b60208310611b965780518252602082019150602081019050602083039250611b73565b6001836020036101000a03801982511681845116808217855250505050505090500191505090815260200160405180910390206001018054600181600116156101000203166002900480601f016020809104026020016040519081016040528092919081815260200182805460018160011615610100020316600290048015611c605780601f10611c3557610100808354040283529160200191611c60565b820191906000526020600020905b815481529060010190602001808311611c4357829003601f168201915b50505050509050919050565b60606001826040518082805190602001908083835b60208310611ca45780518252602082019150602081019050602083039250611c81565b6001836020036101000a03801982511681845116808217855250505050505090500191505090815260200160405180910390206006018054600181600116156101000203166002900480601f016020809104026020016040519081016040528092919081815260200182805460018160011615610100020316600290048015611d6e5780601f10611d4357610100808354040283529160200191611d6e565b820191906000526020600020905b815481529060010190602001808311611d5157829003601f168201915b50505050509050919050565b611d826138ed565b6001866040518082805190602001908083835b60208310611db85780518252602082019150602081019050602083039250611d95565b6001836020036101000a038019825116818451168082178552505050505050905001915050908152602001604051809103902060405180610180016040529081600082018054600181600116156101000203166002900480601f016020809104026020016040519081016040528092919081815260200182805460018160011615610100020316600290048015611e905780601f10611e6557610100808354040283529160200191611e90565b820191906000526020600020905b815481529060010190602001808311611e7357829003601f168201915b50505050508152602001600182018054600181600116156101000203166002900480601f016020809104026020016040519081016040528092919081815260200182805460018160011615610100020316600290048015611f325780601f10611f0757610100808354040283529160200191611f32565b820191906000526020600020905b815481529060010190602001808311611f1557829003601f168201915b50505050508152602001600282018054600181600116156101000203166002900480601f016020809104026020016040519081016040528092919081815260200182805460018160011615610100020316600290048015611fd45780601f10611fa957610100808354040283529160200191611fd4565b820191906000526020600020905b815481529060010190602001808311611fb757829003601f168201915b50505050508152602001600382018054600181600116156101000203166002900480601f0160208091040260200160405190810160405280929190818152602001828054600181600116156101000203166002900480156120765780601f1061204b57610100808354040283529160200191612076565b820191906000526020600020905b81548152906001019060200180831161205957829003601f168201915b50505050508152602001600482018054600181600116156101000203166002900480601f0160208091040260200160405190810160405280929190818152602001828054600181600116156101000203166002900480156121185780601f106120ed57610100808354040283529160200191612118565b820191906000526020600020905b8154815290600101906020018083116120fb57829003601f168201915b50505050508152602001600582018054600181600116156101000203166002900480601f0160208091040260200160405190810160405280929190818152602001828054600181600116156101000203166002900480156121ba5780601f1061218f576101008083540402835291602001916121ba565b820191906000526020600020905b81548152906001019060200180831161219d57829003601f168201915b50505050508152602001600682018054600181600116156101000203166002900480601f01602080910402602001604051908101604052809291908181526020018280546001816001161561010002031660029004801561225c5780601f106122315761010080835404028352916020019161225c565b820191906000526020600020905b81548152906001019060200180831161223f57829003601f168201915b50505050508152602001600782018054600181600116156101000203166002900480601f0160208091040260200160405190810160405280929190818152602001828054600181600116156101000203166002900480156122fe5780601f106122d3576101008083540402835291602001916122fe565b820191906000526020600020905b8154815290600101906020018083116122e157829003601f168201915b50505050508152602001600882018054600181600116156101000203166002900480601f0160208091040260200160405190810160405280929190818152602001828054600181600116156101000203166002900480156123a05780601f10612375576101008083540402835291602001916123a0565b820191906000526020600020905b81548152906001019060200180831161238357829003601f168201915b50505050508152602001600982018054600181600116156101000203166002900480601f0160208091040260200160405190810160405280929190818152602001828054600181600116156101000203166002900480156124425780601f1061241757610100808354040283529160200191612442565b820191906000526020600020905b81548152906001019060200180831161242557829003601f168201915b50505050508152602001600a82018054600181600116156101000203166002900480601f0160208091040260200160405190810160405280929190818152602001828054600181600116156101000203166002900480156124e45780601f106124b9576101008083540402835291602001916124e4565b820191906000526020600020905b8154815290600101906020018083116124c757829003601f168201915b50505050508152602001600b82018054600181600116156101000203166002900480601f0160208091040260200160405190810160405280929190818152602001828054600181600116156101000203166002900480156125865780601f1061255b57610100808354040283529160200191612586565b820191906000526020600020905b81548152906001019060200180831161256957829003601f168201915b5050505050815250509050848160000181905250838160200181905250828160400181905250806001886040518082805190602001908083835b602083106125e357805182526020820191506020810190506020830392506125c0565b6001836020036101000a0380198251168184511680821785525050505050509050019150509081526020016040518091039020600082015181600001908051906020019061263292919061394e565b50602082015181600101908051906020019061264f92919061394e565b50604082015181600201908051906020019061266c92919061394e565b50606082015181600301908051906020019061268992919061394e565b5060808201518160040190805190602001906126a692919061394e565b5060a08201518160050190805190602001906126c392919061394e565b5060c08201518160060190805190602001906126e092919061394e565b5060e08201518160070190805190602001906126fd92919061394e565b5061010082015181600801908051906020019061271b92919061394e565b5061012082015181600901908051906020019061273992919061394e565b5061014082015181600a01908051906020019061275792919061394e565b5061016082015181600b01908051906020019061277592919061394e565b509050506001826040518082805190602001908083835b602083106127af578051825260208201915060208101905060208303925061278c565b6001836020036101000a03801982511681845116808217855250505050505090500191505090815260200160405180910390206001876040518082805190602001908083835b6020831061281857805182526020820191506020810190506020830392506127f5565b6001836020036101000a0380198251168184511680821785525050505050509050019150509081526020016040518091039020600082018160000190805460018160011615610100020316600290046128729291906139ce565b506001820181600101908054600181600116156101000203166002900461289a9291906139ce565b50600282018160020190805460018160011615610100020316600290046128c29291906139ce565b50600382018160030190805460018160011615610100020316600290046128ea9291906139ce565b50600482018160040190805460018160011615610100020316600290046129129291906139ce565b506005820181600501908054600181600116156101000203166002900461293a9291906139ce565b50600682018160060190805460018160011615610100020316600290046129629291906139ce565b506007820181600701908054600181600116156101000203166002900461298a9291906139ce565b50600882018160080190805460018160011615610100020316600290046129b29291906139ce565b50600982018160090190805460018160011615610100020316600290046129da9291906139ce565b50600a820181600a019080546001816001161561010002031660029004612a029291906139ce565b50600b820181600b019080546001816001161561010002031660029004612a2a9291906139ce565b509050506001826040518082805190602001908083835b60208310612a645780518252602082019150602081019050602083039250612a41565b6001836020036101000a038019825116818451168082178552505050505050905001915050908152602001604051809103902060008082016000612aa89190613a55565b600182016000612ab89190613a55565b600282016000612ac89190613a55565b600382016000612ad89190613a55565b600482016000612ae89190613a55565b600582016000612af89190613a55565b600682016000612b089190613a55565b600782016000612b189190613a55565b600882016000612b289190613a55565b600982016000612b389190613a55565b600a82016000612b489190613a55565b600b82016000612b589190613a55565b505050505050505050565b60606001826040518082805190602001908083835b60208310612b9b5780518252602082019150602081019050602083039250612b78565b6001836020036101000a03801982511681845116808217855250505050505090500191505090815260200160405180910390206008018054600181600116156101000203166002900480601f016020809104026020016040519081016040528092919081815260200182805460018160011615610100020316600290048015612c655780601f10612c3a57610100808354040283529160200191612c65565b820191906000526020600020905b815481529060010190602001808311612c4857829003601f168201915b50505050509050919050565b60028181548110612c7e57fe5b906000526020600020016000915090508054600181600116156101000203166002900480601f016020809104026020016040519081016040528092919081815260200182805460018160011615610100020316600290048015612d225780601f10612cf757610100808354040283529160200191612d22565b820191906000526020600020905b815481529060010190602001808311612d0557829003601f168201915b505050505081565b60606001826040518082805190602001908083835b60208310612d625780518252602082019150602081019050602083039250612d3f565b6001836020036101000a03801982511681845116808217855250505050505090500191505090815260200160405180910390206002018054600181600116156101000203166002900480601f016020809104026020016040519081016040528092919081815260200182805460018160011615610100020316600290048015612e2c5780601f10612e0157610100808354040283529160200191612e2c565b820191906000526020600020905b815481529060010190602001808311612e0f57829003601f168201915b50505050509050919050565b60606001826040518082805190602001908083835b60208310612e705780518252602082019150602081019050602083039250612e4d565b6001836020036101000a0380198251168184511680821785525050505050509050019150509081526020016040518091039020600b018054600181600116156101000203166002900480601f016020809104026020016040519081016040528092919081815260200182805460018160011615610100020316600290048015612f3a5780601f10612f0f57610100808354040283529160200191612f3a565b820191906000526020600020905b815481529060010190602001808311612f1d57829003601f168201915b50505050509050919050565b60606001826040518082805190602001908083835b60208310612f7e5780518252602082019150602081019050602083039250612f5b565b6001836020036101000a03801982511681845116808217855250505050505090500191505090815260200160405180910390206009018054600181600116156101000203166002900480601f0160208091040260200160405190810160405280929190818152602001828054600181600116156101000203166002900480156130485780601f1061301d57610100808354040283529160200191613048565b820191906000526020600020905b81548152906001019060200180831161302b57829003601f168201915b50505050509050919050565b60606001826040518082805190602001908083835b6020831061308c5780518252602082019150602081019050602083039250613069565b6001836020036101000a03801982511681845116808217855250505050505090500191505090815260200160405180910390206007018054600181600116156101000203166002900480601f0160208091040260200160405190810160405280929190818152602001828054600181600116156101000203166002900480156131565780601f1061312b57610100808354040283529160200191613156565b820191906000526020600020905b81548152906001019060200180831161313957829003601f168201915b50505050509050919050565b60606001826040518082805190602001908083835b6020831061319a5780518252602082019150602081019050602083039250613177565b6001836020036101000a0380198251168184511680821785525050505050509050019150509081526020016040518091039020600a018054600181600116156101000203166002900480601f0160208091040260200160405190810160405280929190818152602001828054600181600116156101000203166002900480156132645780601f1061323957610100808354040283529160200191613264565b820191906000526020600020905b81548152906001019060200180831161324757829003601f168201915b50505050509050919050565b60606001826040518082805190602001908083835b602083106132a85780518252602082019150602081019050602083039250613285565b6001836020036101000a03801982511681845116808217855250505050505090500191505090815260200160405180910390206003018054600181600116156101000203166002900480601f0160208091040260200160405190810160405280929190818152602001828054600181600116156101000203166002900480156133725780601f1061334757610100808354040283529160200191613372565b820191906000526020600020905b81548152906001019060200180831161335557829003601f168201915b50505050509050919050565b60606001826040518082805190602001908083835b602083106133b65780518252602082019150602081019050602083039250613393565b6001836020036101000a03801982511681845116808217855250505050505090500191505090815260200160405180910390206004018054600181600116156101000203166002900480601f0160208091040260200160405190810160405280929190818152602001828054600181600116156101000203166002900480156134805780601f1061345557610100808354040283529160200191613480565b820191906000526020600020905b81548152906001019060200180831161346357829003601f168201915b50505050509050919050565b6134946138ed565b8d81600001819052508b81602001819052508a8160400181905250898160600181905250888160800181905250878160a00181905250868160c00181905250858160e00181905250848161010001819052508381610120018190525082816101400181905250818161016001819052508060008f6040518082805190602001908083835b6020831061353b5780518252602082019150602081019050602083039250613518565b6001836020036101000a0380198251168184511680821785525050505050509050019150509081526020016040518091039020600082015181600001908051906020019061358a92919061394e565b5060208201518160010190805190602001906135a792919061394e565b5060408201518160020190805190602001906135c492919061394e565b5060608201518160030190805190602001906135e192919061394e565b5060808201518160040190805190602001906135fe92919061394e565b5060a082015181600501908051906020019061361b92919061394e565b5060c082015181600601908051906020019061363892919061394e565b5060e082015181600701908051906020019061365592919061394e565b5061010082015181600801908051906020019061367392919061394e565b5061012082015181600901908051906020019061369192919061394e565b5061014082015181600a0190805190602001906136af92919061394e565b5061016082015181600b0190805190602001906136cd92919061394e565b509050508060018e6040518082805190602001908083835b6020831061370857805182526020820191506020810190506020830392506136e5565b6001836020036101000a0380198251168184511680821785525050505050509050019150509081526020016040518091039020600082015181600001908051906020019061375792919061394e565b50602082015181600101908051906020019061377492919061394e565b50604082015181600201908051906020019061379192919061394e565b5060608201518160030190805190602001906137ae92919061394e565b5060808201518160040190805190602001906137cb92919061394e565b5060a08201518160050190805190602001906137e892919061394e565b5060c082015181600601908051906020019061380592919061394e565b5060e082015181600701908051906020019061382292919061394e565b5061010082015181600801908051906020019061384092919061394e565b5061012082015181600901908051906020019061385e92919061394e565b5061014082015181600a01908051906020019061387c92919061394e565b5061016082015181600b01908051906020019061389a92919061394e565b5090505060028e90806001815401808255809150509060018203906000526020600020016000909192909190915090805190602001906138db929190613a9d565b50505050505050505050505050505050565b6040518061018001604052806060815260200160608152602001606081526020016060815260200160608152602001606081526020016060815260200160608152602001606081526020016060815260200160608152602001606081525090565b828054600181600116156101000203166002900490600052602060002090601f016020900481019282601f1061398f57805160ff19168380011785556139bd565b828001600101855582156139bd579182015b828111156139bc5782518255916020019190600101906139a1565b5b5090506139ca9190613b1d565b5090565b828054600181600116156101000203166002900490600052602060002090601f016020900481019282601f10613a075780548555613a44565b82800160010185558215613a4457600052602060002091601f016020900482015b82811115613a43578254825591600101919060010190613a28565b5b509050613a519190613b1d565b5090565b50805460018160011615610100020316600290046000825580601f10613a7b5750613a9a565b601f016020900490600052602060002090810190613a999190613b1d565b5b50565b828054600181600116156101000203166002900490600052602060002090601f016020900481019282601f10613ade57805160ff1916838001178555613b0c565b82800160010185558215613b0c579182015b82811115613b0b578251825591602001919060010190613af0565b5b509050613b199190613b1d565b5090565b613b3f91905b80821115613b3b576000816000905550600101613b23565b5090565b9056fea265627a7a723158200dd30e06ab43a89d489b428015c94ee301ff81795d15cb3841a62b8ee57e67a764736f6c63430005100032",
  "source": "// SimpleStorage.sol\r\npragma solidity >=0.4.21 <0.7.1;\r\n\r\ncontract SimpleStorage {\r\n  struct OwnerStruct{\r\n    string id;\r\n    string firstName;\r\n    string lastName;\r\n    string lats;\r\n    string state;\r\n    string city;\r\n    string locality;\r\n    string plotNo;\r\n    string buyingRate;\r\n    string landSize;\r\n    string hashValue;\r\n    string price;\r\n  }\r\n\r\n  mapping(string => OwnerStruct) ownerList;\r\n  mapping(string => OwnerStruct) lands;\r\n\r\n  string[] public ownerAccts;\r\n\r\n  function setOwner(string memory _address, string memory _id, string memory _fName,\r\n  string memory _lName, string memory _lats, string memory _state, string memory _city, \r\n  string memory _locality, string memory _plotNo,\r\n  string memory _buyingRate, string memory _landSize, string memory _hashValue, string memory _price) public {\r\n      OwnerStruct memory owner;\r\n      owner.id = _address;\r\n      owner.firstName = _fName;\r\n      owner.lastName = _lName;\r\n      owner.lats = _lats;\r\n      owner.state = _state;\r\n      owner.city = _city;\r\n      owner.locality = _locality;\r\n      owner.plotNo = _plotNo;\r\n      owner.buyingRate = _buyingRate;\r\n      owner.landSize = _landSize;\r\n      owner.hashValue = _hashValue;\r\n      owner.price = _price;\r\n      ownerList[_address] = owner;\r\n      lands[_id] = owner;\r\n      ownerAccts.push(_address);\r\n  }\r\n\r\n  function transaction(string memory _buyerID, string memory _sellerID, \r\n  string memory _address, string memory _fName, string memory _lName, string memory _sellerLastID) public {\r\n      OwnerStruct memory owner;\r\n      owner = lands[_sellerID];\r\n      owner.id = _address;\r\n      owner.firstName = _fName;\r\n      owner.lastName = _lName;\r\n      lands[_buyerID] = owner;\r\n      lands[_sellerID] = lands[_sellerLastID];\r\n      delete lands[_sellerLastID];\r\n  }\r\n  \r\n  function getfName(string memory _id) public view returns (string memory){\r\n      return (lands[_id].firstName);\r\n  }\r\n\r\n  function getlName(string memory _id) public view returns (string memory){\r\n      return (lands[_id].lastName);\r\n  }\r\n\r\n  function getLats(string memory _id) public view returns (string memory){\r\n      return (lands[_id].lats);\r\n  }\r\n\r\n  function getState(string memory _id) public view returns (string memory){\r\n      return (lands[_id].state);\r\n  }\r\n\r\n  function getCity(string memory _id) public view returns (string memory){\r\n      return (lands[_id].city);\r\n  }\r\n\r\n  function getLocality(string memory _id) public view returns (string memory){\r\n      return (lands[_id].locality);\r\n  }\r\n\r\n  function getBuyingRate(string memory _id) public view returns (string memory){\r\n      return (lands[_id].buyingRate);\r\n  }\r\n\r\n  function getLandSize(string memory _id) public view returns (string memory){\r\n      return (lands[_id].landSize);\r\n  }\r\n\r\n  function getHashValue(string memory _id) public view returns (string memory){\r\n      return (lands[_id].hashValue);\r\n  }\r\n\r\n  function getPlotNo(string memory _id) public view returns (string memory){\r\n      return (lands[_id].plotNo);\r\n  }\r\n\r\n  function getPrice(string memory _id) public view returns (string memory){\r\n      return (lands[_id].price);\r\n  }\r\n\r\n\r\n}",
  "sourcePath": "F:/Web Development/React/GiRecords/blockchain/contracts/SimpleStorage.sol",
  "compiler": {
    "name": "solc",
    "version": "0.5.16+commit.9c3226ce.Emscripten.clang"
  },
  "schemaVersion": "3.2.3",
  "updatedAt": "2020-09-14T08:32:02.928Z",
  "networkType": "ethereum",
  "devdoc": {
    "methods": {}
  },
  "userdoc": {
    "methods": {}
  }
}