{
  "contractName": "SimpleStorage",
  "abi": [
    {
      "constant": true,
      "inputs": [
        {
          "internalType": "uint256",
          "name": "",
          "type": "uint256"
        }
      ],
      "name": "ownerAccts",
      "outputs": [
        {
          "internalType": "address",
          "name": "",
          "type": "address"
        }
      ],
      "payable": false,
      "stateMutability": "view",
      "type": "function"
    },
    {
      "constant": false,
      "inputs": [
        {
          "internalType": "address",
          "name": "_address",
          "type": "address"
        },
        {
          "internalType": "string",
          "name": "_id",
          "type": "string"
        },
        {
          "internalType": "string",
          "name": "_fName",
          "type": "string"
        },
        {
          "internalType": "string",
          "name": "_lName",
          "type": "string"
        },
        {
          "internalType": "string",
          "name": "_lats",
          "type": "string"
        },
        {
          "internalType": "string",
          "name": "_state",
          "type": "string"
        },
        {
          "internalType": "string",
          "name": "_city",
          "type": "string"
        },
        {
          "internalType": "string",
          "name": "_locality",
          "type": "string"
        },
        {
          "internalType": "string",
          "name": "_plotNo",
          "type": "string"
        },
        {
          "internalType": "string",
          "name": "_price",
          "type": "string"
        }
      ],
      "name": "setOwner",
      "outputs": [],
      "payable": false,
      "stateMutability": "nonpayable",
      "type": "function"
    },
    {
      "constant": true,
      "inputs": [
        {
          "internalType": "string",
          "name": "_id",
          "type": "string"
        }
      ],
      "name": "getfName",
      "outputs": [
        {
          "internalType": "string",
          "name": "",
          "type": "string"
        }
      ],
      "payable": false,
      "stateMutability": "view",
      "type": "function"
    },
    {
      "constant": true,
      "inputs": [
        {
          "internalType": "string",
          "name": "_id",
          "type": "string"
        }
      ],
      "name": "getlName",
      "outputs": [
        {
          "internalType": "string",
          "name": "",
          "type": "string"
        }
      ],
      "payable": false,
      "stateMutability": "view",
      "type": "function"
    },
    {
      "constant": true,
      "inputs": [
        {
          "internalType": "string",
          "name": "_id",
          "type": "string"
        }
      ],
      "name": "getLats",
      "outputs": [
        {
          "internalType": "string",
          "name": "",
          "type": "string"
        }
      ],
      "payable": false,
      "stateMutability": "view",
      "type": "function"
    },
    {
      "constant": true,
      "inputs": [
        {
          "internalType": "string",
          "name": "_id",
          "type": "string"
        }
      ],
      "name": "getState",
      "outputs": [
        {
          "internalType": "string",
          "name": "",
          "type": "string"
        }
      ],
      "payable": false,
      "stateMutability": "view",
      "type": "function"
    },
    {
      "constant": true,
      "inputs": [
        {
          "internalType": "string",
          "name": "_id",
          "type": "string"
        }
      ],
      "name": "getCity",
      "outputs": [
        {
          "internalType": "string",
          "name": "",
          "type": "string"
        }
      ],
      "payable": false,
      "stateMutability": "view",
      "type": "function"
    },
    {
      "constant": true,
      "inputs": [
        {
          "internalType": "string",
          "name": "_id",
          "type": "string"
        }
      ],
      "name": "getLocality",
      "outputs": [
        {
          "internalType": "string",
          "name": "",
          "type": "string"
        }
      ],
      "payable": false,
      "stateMutability": "view",
      "type": "function"
    },
    {
      "constant": true,
      "inputs": [
        {
          "internalType": "string",
          "name": "_id",
          "type": "string"
        }
      ],
      "name": "getPlotNo",
      "outputs": [
        {
          "internalType": "string",
          "name": "",
          "type": "string"
        }
      ],
      "payable": false,
      "stateMutability": "view",
      "type": "function"
    },
    {
      "constant": true,
      "inputs": [
        {
          "internalType": "string",
          "name": "_id",
          "type": "string"
        }
      ],
      "name": "getPrice",
      "outputs": [
        {
          "internalType": "string",
          "name": "",
          "type": "string"
        }
      ],
      "payable": false,
      "stateMutability": "view",
      "type": "function"
    },
    {
      "constant": true,
      "inputs": [],
      "name": "getOwner",
      "outputs": [
        {
          "internalType": "address[]",
          "name": "",
          "type": "address[]"
        }
      ],
      "payable": false,
      "stateMutability": "view",
      "type": "function"
    }
  ],
  "bytecode": "0x608060405234801561001057600080fd5b50611e96806100206000396000f3fe608060405234801561001057600080fd5b50600436106100a95760003560e01c806341f28d2c1161007157806341f28d2c14610a4c578063524f388914610b80578063893d20e814610cb4578063acd5402714610d13578063e2f58fba14610e47578063e33f77ca14610f7b576100a9565b80630650e971146100ae57806317b7ef07146101e25780631ab4abab146103165780632e9f55641461044a5780633232b1d4146104b8575b600080fd5b610167600480360360208110156100c457600080fd5b81019080803590602001906401000000008111156100e157600080fd5b8201836020820111156100f357600080fd5b8035906020019184600183028401116401000000008311171561011557600080fd5b91908080601f016020809104026020016040519081016040528093929190818152602001838380828437600081840152601f19601f8201169050808301925050505050505091929192905050506110af565b6040518080602001828103825283818151815260200191508051906020019080838360005b838110156101a757808201518184015260208101905061018c565b50505050905090810190601f1680156101d45780820380516001836020036101000a031916815260200191505b509250505060405180910390f35b61029b600480360360208110156101f857600080fd5b810190808035906020019064010000000081111561021557600080fd5b82018360208201111561022757600080fd5b8035906020019184600183028401116401000000008311171561024957600080fd5b91908080601f016020809104026020016040519081016040528093929190818152602001838380828437600081840152601f19601f8201169050808301925050505050505091929192905050506111bd565b6040518080602001828103825283818151815260200191508051906020019080838360005b838110156102db5780820151818401526020810190506102c0565b50505050905090810190601f1680156103085780820380516001836020036101000a031916815260200191505b509250505060405180910390f35b6103cf6004803603602081101561032c57600080fd5b810190808035906020019064010000000081111561034957600080fd5b82018360208201111561035b57600080fd5b8035906020019184600183028401116401000000008311171561037d57600080fd5b91908080601f016020809104026020016040519081016040528093929190818152602001838380828437600081840152601f19601f8201169050808301925050505050505091929192905050506112cb565b6040518080602001828103825283818151815260200191508051906020019080838360005b8381101561040f5780820151818401526020810190506103f4565b50505050905090810190601f16801561043c5780820380516001836020036101000a031916815260200191505b509250505060405180910390f35b6104766004803603602081101561046057600080fd5b81019080803590602001909291905050506113d9565b604051808273ffffffffffffffffffffffffffffffffffffffff1673ffffffffffffffffffffffffffffffffffffffff16815260200191505060405180910390f35b610a4a60048036036101408110156104cf57600080fd5b81019080803573ffffffffffffffffffffffffffffffffffffffff1690602001909291908035906020019064010000000081111561050c57600080fd5b82018360208201111561051e57600080fd5b8035906020019184600183028401116401000000008311171561054057600080fd5b91908080601f016020809104026020016040519081016040528093929190818152602001838380828437600081840152601f19601f820116905080830192505050505050509192919290803590602001906401000000008111156105a357600080fd5b8201836020820111156105b557600080fd5b803590602001918460018302840111640100000000831117156105d757600080fd5b91908080601f016020809104026020016040519081016040528093929190818152602001838380828437600081840152601f19601f8201169050808301925050505050505091929192908035906020019064010000000081111561063a57600080fd5b82018360208201111561064c57600080fd5b8035906020019184600183028401116401000000008311171561066e57600080fd5b91908080601f016020809104026020016040519081016040528093929190818152602001838380828437600081840152601f19601f820116905080830192505050505050509192919290803590602001906401000000008111156106d157600080fd5b8201836020820111156106e357600080fd5b8035906020019184600183028401116401000000008311171561070557600080fd5b91908080601f016020809104026020016040519081016040528093929190818152602001838380828437600081840152601f19601f8201169050808301925050505050505091929192908035906020019064010000000081111561076857600080fd5b82018360208201111561077a57600080fd5b8035906020019184600183028401116401000000008311171561079c57600080fd5b91908080601f016020809104026020016040519081016040528093929190818152602001838380828437600081840152601f19601f820116905080830192505050505050509192919290803590602001906401000000008111156107ff57600080fd5b82018360208201111561081157600080fd5b8035906020019184600183028401116401000000008311171561083357600080fd5b91908080601f016020809104026020016040519081016040528093929190818152602001838380828437600081840152601f19601f8201169050808301925050505050505091929192908035906020019064010000000081111561089657600080fd5b8201836020820111156108a857600080fd5b803590602001918460018302840111640100000000831117156108ca57600080fd5b91908080601f016020809104026020016040519081016040528093929190818152602001838380828437600081840152601f19601f8201169050808301925050505050505091929192908035906020019064010000000081111561092d57600080fd5b82018360208201111561093f57600080fd5b8035906020019184600183028401116401000000008311171561096157600080fd5b91908080601f016020809104026020016040519081016040528093929190818152602001838380828437600081840152601f19601f820116905080830192505050505050509192919290803590602001906401000000008111156109c457600080fd5b8201836020820111156109d657600080fd5b803590602001918460018302840111640100000000831117156109f857600080fd5b91908080601f016020809104026020016040519081016040528093929190818152602001838380828437600081840152601f19601f820116905080830192505050505050509192919290505050611415565b005b610b0560048036036020811015610a6257600080fd5b8101908080359060200190640100000000811115610a7f57600080fd5b820183602082011115610a9157600080fd5b80359060200191846001830284011164010000000083111715610ab357600080fd5b91908080601f016020809104026020016040519081016040528093929190818152602001838380828437600081840152601f19601f82011690508083019250505050505050919291929050505061179c565b6040518080602001828103825283818151815260200191508051906020019080838360005b83811015610b45578082015181840152602081019050610b2a565b50505050905090810190601f168015610b725780820380516001836020036101000a031916815260200191505b509250505060405180910390f35b610c3960048036036020811015610b9657600080fd5b8101908080359060200190640100000000811115610bb357600080fd5b820183602082011115610bc557600080fd5b80359060200191846001830284011164010000000083111715610be757600080fd5b91908080601f016020809104026020016040519081016040528093929190818152602001838380828437600081840152601f19601f8201169050808301925050505050505091929192905050506118aa565b6040518080602001828103825283818151815260200191508051906020019080838360005b83811015610c79578082015181840152602081019050610c5e565b50505050905090810190601f168015610ca65780820380516001836020036101000a031916815260200191505b509250505060405180910390f35b610cbc6119b8565b6040518080602001828103825283818151815260200191508051906020019060200280838360005b83811015610cff578082015181840152602081019050610ce4565b505050509050019250505060405180910390f35b610dcc60048036036020811015610d2957600080fd5b8101908080359060200190640100000000811115610d4657600080fd5b820183602082011115610d5857600080fd5b80359060200191846001830284011164010000000083111715610d7a57600080fd5b91908080601f016020809104026020016040519081016040528093929190818152602001838380828437600081840152601f19601f820116905080830192505050505050509192919290505050611a46565b6040518080602001828103825283818151815260200191508051906020019080838360005b83811015610e0c578082015181840152602081019050610df1565b50505050905090810190601f168015610e395780820380516001836020036101000a031916815260200191505b509250505060405180910390f35b610f0060048036036020811015610e5d57600080fd5b8101908080359060200190640100000000811115610e7a57600080fd5b820183602082011115610e8c57600080fd5b80359060200191846001830284011164010000000083111715610eae57600080fd5b91908080601f016020809104026020016040519081016040528093929190818152602001838380828437600081840152601f19601f820116905080830192505050505050509192919290505050611b54565b6040518080602001828103825283818151815260200191508051906020019080838360005b83811015610f40578082015181840152602081019050610f25565b50505050905090810190601f168015610f6d5780820380516001836020036101000a031916815260200191505b509250505060405180910390f35b61103460048036036020811015610f9157600080fd5b8101908080359060200190640100000000811115610fae57600080fd5b820183602082011115610fc057600080fd5b80359060200191846001830284011164010000000083111715610fe257600080fd5b91908080601f016020809104026020016040519081016040528093929190818152602001838380828437600081840152601f19601f820116905080830192505050505050509192919290505050611c62565b6040518080602001828103825283818151815260200191508051906020019080838360005b83811015611074578082015181840152602081019050611059565b50505050905090810190601f1680156110a15780820380516001836020036101000a031916815260200191505b509250505060405180910390f35b60606001826040518082805190602001908083835b602083106110e757805182526020820191506020810190506020830392506110c4565b6001836020036101000a03801982511681845116808217855250505050505090500191505090815260200160405180910390206005018054600181600116156101000203166002900480601f0160208091040260200160405190810160405280929190818152602001828054600181600116156101000203166002900480156111b15780601f10611186576101008083540402835291602001916111b1565b820191906000526020600020905b81548152906001019060200180831161119457829003601f168201915b50505050509050919050565b60606001826040518082805190602001908083835b602083106111f557805182526020820191506020810190506020830392506111d2565b6001836020036101000a03801982511681845116808217855250505050505090500191505090815260200160405180910390206001018054600181600116156101000203166002900480601f0160208091040260200160405190810160405280929190818152602001828054600181600116156101000203166002900480156112bf5780601f10611294576101008083540402835291602001916112bf565b820191906000526020600020905b8154815290600101906020018083116112a257829003601f168201915b50505050509050919050565b60606001826040518082805190602001908083835b6020831061130357805182526020820191506020810190506020830392506112e0565b6001836020036101000a03801982511681845116808217855250505050505090500191505090815260200160405180910390206006018054600181600116156101000203166002900480601f0160208091040260200160405190810160405280929190818152602001828054600181600116156101000203166002900480156113cd5780601f106113a2576101008083540402835291602001916113cd565b820191906000526020600020905b8154815290600101906020018083116113b057829003601f168201915b50505050509050919050565b600281815481106113e657fe5b906000526020600020016000915054906101000a900473ffffffffffffffffffffffffffffffffffffffff1681565b61141d611d70565b898160000181905250888160200181905250878160400181905250868160600181905250858160800181905250848160800181905250838160800181905250828160800181905250818160800181905250806000808d73ffffffffffffffffffffffffffffffffffffffff1673ffffffffffffffffffffffffffffffffffffffff16815260200190815260200160002060008201518160000190805190602001906114c9929190611dbc565b5060208201518160010190805190602001906114e6929190611dbc565b506040820151816002019080519060200190611503929190611dbc565b506060820151816003019080519060200190611520929190611dbc565b50608082015181600401908051906020019061153d929190611dbc565b5060a082015181600501908051906020019061155a929190611dbc565b5060c0820151816006019080519060200190611577929190611dbc565b5060e0820151816007019080519060200190611594929190611dbc565b506101008201518160080190805190602001906115b2929190611dbc565b509050508060018b6040518082805190602001908083835b602083106115ed57805182526020820191506020810190506020830392506115ca565b6001836020036101000a0380198251168184511680821785525050505050509050019150509081526020016040518091039020600082015181600001908051906020019061163c929190611dbc565b506020820151816001019080519060200190611659929190611dbc565b506040820151816002019080519060200190611676929190611dbc565b506060820151816003019080519060200190611693929190611dbc565b5060808201518160040190805190602001906116b0929190611dbc565b5060a08201518160050190805190602001906116cd929190611dbc565b5060c08201518160060190805190602001906116ea929190611dbc565b5060e0820151816007019080519060200190611707929190611dbc565b50610100820151816008019080519060200190611725929190611dbc565b5090505060028b90806001815401808255809150509060018203906000526020600020016000909192909190916101000a81548173ffffffffffffffffffffffffffffffffffffffff021916908373ffffffffffffffffffffffffffffffffffffffff160217905550505050505050505050505050565b60606001826040518082805190602001908083835b602083106117d457805182526020820191506020810190506020830392506117b1565b6001836020036101000a03801982511681845116808217855250505050505090500191505090815260200160405180910390206002018054600181600116156101000203166002900480601f01602080910402602001604051908101604052809291908181526020018280546001816001161561010002031660029004801561189e5780601f106118735761010080835404028352916020019161189e565b820191906000526020600020905b81548152906001019060200180831161188157829003601f168201915b50505050509050919050565b60606001826040518082805190602001908083835b602083106118e257805182526020820191506020810190506020830392506118bf565b6001836020036101000a03801982511681845116808217855250505050505090500191505090815260200160405180910390206008018054600181600116156101000203166002900480601f0160208091040260200160405190810160405280929190818152602001828054600181600116156101000203166002900480156119ac5780601f10611981576101008083540402835291602001916119ac565b820191906000526020600020905b81548152906001019060200180831161198f57829003601f168201915b50505050509050919050565b60606002805480602002602001604051908101604052809291908181526020018280548015611a3c57602002820191906000526020600020905b8160009054906101000a900473ffffffffffffffffffffffffffffffffffffffff1673ffffffffffffffffffffffffffffffffffffffff16815260200190600101908083116119f2575b5050505050905090565b60606001826040518082805190602001908083835b60208310611a7e5780518252602082019150602081019050602083039250611a5b565b6001836020036101000a03801982511681845116808217855250505050505090500191505090815260200160405180910390206007018054600181600116156101000203166002900480601f016020809104026020016040519081016040528092919081815260200182805460018160011615610100020316600290048015611b485780601f10611b1d57610100808354040283529160200191611b48565b820191906000526020600020905b815481529060010190602001808311611b2b57829003601f168201915b50505050509050919050565b60606001826040518082805190602001908083835b60208310611b8c5780518252602082019150602081019050602083039250611b69565b6001836020036101000a03801982511681845116808217855250505050505090500191505090815260200160405180910390206003018054600181600116156101000203166002900480601f016020809104026020016040519081016040528092919081815260200182805460018160011615610100020316600290048015611c565780601f10611c2b57610100808354040283529160200191611c56565b820191906000526020600020905b815481529060010190602001808311611c3957829003601f168201915b50505050509050919050565b60606001826040518082805190602001908083835b60208310611c9a5780518252602082019150602081019050602083039250611c77565b6001836020036101000a03801982511681845116808217855250505050505090500191505090815260200160405180910390206004018054600181600116156101000203166002900480601f016020809104026020016040519081016040528092919081815260200182805460018160011615610100020316600290048015611d645780601f10611d3957610100808354040283529160200191611d64565b820191906000526020600020905b815481529060010190602001808311611d4757829003601f168201915b50505050509050919050565b6040518061012001604052806060815260200160608152602001606081526020016060815260200160608152602001606081526020016060815260200160608152602001606081525090565b828054600181600116156101000203166002900490600052602060002090601f016020900481019282601f10611dfd57805160ff1916838001178555611e2b565b82800160010185558215611e2b579182015b82811115611e2a578251825591602001919060010190611e0f565b5b509050611e389190611e3c565b5090565b611e5e91905b80821115611e5a576000816000905550600101611e42565b5090565b9056fea265627a7a72315820b37c8b4fb083a63620753dd8ab95638ba60d978275adfabea58799803221de8a64736f6c63430005100032",
  "source": "// SimpleStorage.sol\r\npragma solidity >=0.4.21 <0.7.1;\r\n\r\ncontract SimpleStorage {\r\n  struct OwnerStruct{\r\n    string id;\r\n    string firstName;\r\n    string lastName;\r\n    string lats;\r\n    string state;\r\n    string city;\r\n    string locality;\r\n    string plotNo;\r\n    string price;\r\n  }\r\n\r\n  mapping(address => OwnerStruct) ownerList;\r\n  mapping(string => OwnerStruct) lands;\r\n\r\n  address[] public ownerAccts;\r\n\r\n  function setOwner(address _address, string memory _id, string memory _fName, string memory _lName, string memory _lats, string memory _state, string memory _city, string memory _locality, string memory _plotNo, string memory _price) public {\r\n      OwnerStruct memory owner;\r\n      owner.id = _id;\r\n      owner.firstName = _fName;\r\n      owner.lastName = _lName;\r\n      owner.lats = _lats;\r\n      owner.state = _state;\r\n      owner.state = _city;\r\n      owner.state = _locality;\r\n      owner.state = _plotNo;\r\n      owner.state = _price;\r\n      ownerList[_address] = owner;\r\n      lands[_id] = owner;\r\n      ownerAccts.push(_address);\r\n  }\r\n  \r\n  function getfName(string memory _id) public view returns (string memory){\r\n      return (lands[_id].firstName);\r\n  }\r\n\r\n  function getlName(string memory _id) public view returns (string memory){\r\n      return (lands[_id].lastName);\r\n  }\r\n\r\n  function getLats(string memory _id) public view returns (string memory){\r\n      return (lands[_id].lats);\r\n  }\r\n\r\n  function getState(string memory _id) public view returns (string memory){\r\n      return (lands[_id].state);\r\n  }\r\n\r\n  function getCity(string memory _id) public view returns (string memory){\r\n      return (lands[_id].city);\r\n  }\r\n\r\n  function getLocality(string memory _id) public view returns (string memory){\r\n      return (lands[_id].locality);\r\n  }\r\n\r\n  function getPlotNo(string memory _id) public view returns (string memory){\r\n      return (lands[_id].plotNo);\r\n  }\r\n\r\n  function getPrice(string memory _id) public view returns (string memory){\r\n      return (lands[_id].price);\r\n  }\r\n  \r\n  function getOwner() public view returns(address[] memory) {\r\n        return ownerAccts;\r\n  }\r\n\r\n\r\n}",
  "sourcePath": "F:/Web Development/React/GiRecords/blockchain/contracts/SimpleStorage.sol",
  "compiler": {
    "name": "solc",
    "version": "0.5.16+commit.9c3226ce.Emscripten.clang"
  },
  "schemaVersion": "3.2.3",
  "updatedAt": "2020-08-26T06:06:22.585Z",
  "networkType": "ethereum",
  "devdoc": {
    "methods": {}
  },
  "userdoc": {
    "methods": {}
  }
}