{
  "contractName": "SimpleStorage",
  "abi": [
    {
      "constant": true,
      "inputs": [
        {
          "internalType": "uint256",
          "name": "",
          "type": "uint256"
        }
      ],
      "name": "ownerAccts",
      "outputs": [
        {
          "internalType": "string",
          "name": "",
          "type": "string"
        }
      ],
      "payable": false,
      "stateMutability": "view",
      "type": "function"
    },
    {
      "constant": false,
      "inputs": [
        {
          "internalType": "string",
          "name": "_address",
          "type": "string"
        },
        {
          "internalType": "string",
          "name": "_id",
          "type": "string"
        },
        {
          "internalType": "string",
          "name": "_fName",
          "type": "string"
        },
        {
          "internalType": "string",
          "name": "_lName",
          "type": "string"
        },
        {
          "internalType": "string",
          "name": "_lats",
          "type": "string"
        },
        {
          "internalType": "string",
          "name": "_state",
          "type": "string"
        },
        {
          "internalType": "string",
          "name": "_city",
          "type": "string"
        },
        {
          "internalType": "string",
          "name": "_locality",
          "type": "string"
        },
        {
          "internalType": "string",
          "name": "_plotNo",
          "type": "string"
        },
        {
          "internalType": "string",
          "name": "_price",
          "type": "string"
        }
      ],
      "name": "setOwner",
      "outputs": [],
      "payable": false,
      "stateMutability": "nonpayable",
      "type": "function"
    },
    {
      "constant": false,
      "inputs": [
        {
          "internalType": "string",
          "name": "_buyerID",
          "type": "string"
        },
        {
          "internalType": "string",
          "name": "_sellerID",
          "type": "string"
        },
        {
          "internalType": "string",
          "name": "_address",
          "type": "string"
        },
        {
          "internalType": "string",
          "name": "_fName",
          "type": "string"
        },
        {
          "internalType": "string",
          "name": "_lName",
          "type": "string"
        },
        {
          "internalType": "string",
          "name": "_sellerLastID",
          "type": "string"
        }
      ],
      "name": "transaction",
      "outputs": [],
      "payable": false,
      "stateMutability": "nonpayable",
      "type": "function"
    },
    {
      "constant": true,
      "inputs": [
        {
          "internalType": "string",
          "name": "_id",
          "type": "string"
        }
      ],
      "name": "getfName",
      "outputs": [
        {
          "internalType": "string",
          "name": "",
          "type": "string"
        }
      ],
      "payable": false,
      "stateMutability": "view",
      "type": "function"
    },
    {
      "constant": true,
      "inputs": [
        {
          "internalType": "string",
          "name": "_id",
          "type": "string"
        }
      ],
      "name": "getlName",
      "outputs": [
        {
          "internalType": "string",
          "name": "",
          "type": "string"
        }
      ],
      "payable": false,
      "stateMutability": "view",
      "type": "function"
    },
    {
      "constant": true,
      "inputs": [
        {
          "internalType": "string",
          "name": "_id",
          "type": "string"
        }
      ],
      "name": "getLats",
      "outputs": [
        {
          "internalType": "string",
          "name": "",
          "type": "string"
        }
      ],
      "payable": false,
      "stateMutability": "view",
      "type": "function"
    },
    {
      "constant": true,
      "inputs": [
        {
          "internalType": "string",
          "name": "_id",
          "type": "string"
        }
      ],
      "name": "getState",
      "outputs": [
        {
          "internalType": "string",
          "name": "",
          "type": "string"
        }
      ],
      "payable": false,
      "stateMutability": "view",
      "type": "function"
    },
    {
      "constant": true,
      "inputs": [
        {
          "internalType": "string",
          "name": "_id",
          "type": "string"
        }
      ],
      "name": "getCity",
      "outputs": [
        {
          "internalType": "string",
          "name": "",
          "type": "string"
        }
      ],
      "payable": false,
      "stateMutability": "view",
      "type": "function"
    },
    {
      "constant": true,
      "inputs": [
        {
          "internalType": "string",
          "name": "_id",
          "type": "string"
        }
      ],
      "name": "getLocality",
      "outputs": [
        {
          "internalType": "string",
          "name": "",
          "type": "string"
        }
      ],
      "payable": false,
      "stateMutability": "view",
      "type": "function"
    },
    {
      "constant": true,
      "inputs": [
        {
          "internalType": "string",
          "name": "_id",
          "type": "string"
        }
      ],
      "name": "getPlotNo",
      "outputs": [
        {
          "internalType": "string",
          "name": "",
          "type": "string"
        }
      ],
      "payable": false,
      "stateMutability": "view",
      "type": "function"
    },
    {
      "constant": true,
      "inputs": [
        {
          "internalType": "string",
          "name": "_id",
          "type": "string"
        }
      ],
      "name": "getPrice",
      "outputs": [
        {
          "internalType": "string",
          "name": "",
          "type": "string"
        }
      ],
      "payable": false,
      "stateMutability": "view",
      "type": "function"
    }
  ],
  "bytecode": "0x608060405234801561001057600080fd5b50612ed8806100206000396000f3fe608060405234801561001057600080fd5b50600436106100a95760003560e01c806341f28d2c1161007157806341f28d2c1461089f578063524f3889146109d3578063acd5402714610b07578063afecfb7f14610c3b578063e2f58fba14611246578063e33f77ca1461137a576100a9565b80630650e971146100ae57806317b7ef07146101e25780631ab4abab146103165780631c482f371461044a5780632e9f5564146107f8575b600080fd5b610167600480360360208110156100c457600080fd5b81019080803590602001906401000000008111156100e157600080fd5b8201836020820111156100f357600080fd5b8035906020019184600183028401116401000000008311171561011557600080fd5b91908080601f016020809104026020016040519081016040528093929190818152602001838380828437600081840152601f19601f8201169050808301925050505050505091929192905050506114ae565b6040518080602001828103825283818151815260200191508051906020019080838360005b838110156101a757808201518184015260208101905061018c565b50505050905090810190601f1680156101d45780820380516001836020036101000a031916815260200191505b509250505060405180910390f35b61029b600480360360208110156101f857600080fd5b810190808035906020019064010000000081111561021557600080fd5b82018360208201111561022757600080fd5b8035906020019184600183028401116401000000008311171561024957600080fd5b91908080601f016020809104026020016040519081016040528093929190818152602001838380828437600081840152601f19601f8201169050808301925050505050505091929192905050506115bc565b6040518080602001828103825283818151815260200191508051906020019080838360005b838110156102db5780820151818401526020810190506102c0565b50505050905090810190601f1680156103085780820380516001836020036101000a031916815260200191505b509250505060405180910390f35b6103cf6004803603602081101561032c57600080fd5b810190808035906020019064010000000081111561034957600080fd5b82018360208201111561035b57600080fd5b8035906020019184600183028401116401000000008311171561037d57600080fd5b91908080601f016020809104026020016040519081016040528093929190818152602001838380828437600081840152601f19601f8201169050808301925050505050505091929192905050506116ca565b6040518080602001828103825283818151815260200191508051906020019080838360005b8381101561040f5780820151818401526020810190506103f4565b50505050905090810190601f16801561043c5780820380516001836020036101000a031916815260200191505b509250505060405180910390f35b6107f6600480360360c081101561046057600080fd5b810190808035906020019064010000000081111561047d57600080fd5b82018360208201111561048f57600080fd5b803590602001918460018302840111640100000000831117156104b157600080fd5b91908080601f016020809104026020016040519081016040528093929190818152602001838380828437600081840152601f19601f8201169050808301925050505050505091929192908035906020019064010000000081111561051457600080fd5b82018360208201111561052657600080fd5b8035906020019184600183028401116401000000008311171561054857600080fd5b91908080601f016020809104026020016040519081016040528093929190818152602001838380828437600081840152601f19601f820116905080830192505050505050509192919290803590602001906401000000008111156105ab57600080fd5b8201836020820111156105bd57600080fd5b803590602001918460018302840111640100000000831117156105df57600080fd5b91908080601f016020809104026020016040519081016040528093929190818152602001838380828437600081840152601f19601f8201169050808301925050505050505091929192908035906020019064010000000081111561064257600080fd5b82018360208201111561065457600080fd5b8035906020019184600183028401116401000000008311171561067657600080fd5b91908080601f016020809104026020016040519081016040528093929190818152602001838380828437600081840152601f19601f820116905080830192505050505050509192919290803590602001906401000000008111156106d957600080fd5b8201836020820111156106eb57600080fd5b8035906020019184600183028401116401000000008311171561070d57600080fd5b91908080601f016020809104026020016040519081016040528093929190818152602001838380828437600081840152601f19601f8201169050808301925050505050505091929192908035906020019064010000000081111561077057600080fd5b82018360208201111561078257600080fd5b803590602001918460018302840111640100000000831117156107a457600080fd5b91908080601f016020809104026020016040519081016040528093929190818152602001838380828437600081840152601f19601f8201169050808301925050505050505091929192905050506117d8565b005b6108246004803603602081101561080e57600080fd5b81019080803590602001909291905050506122d9565b6040518080602001828103825283818151815260200191508051906020019080838360005b83811015610864578082015181840152602081019050610849565b50505050905090810190601f1680156108915780820380516001836020036101000a031916815260200191505b509250505060405180910390f35b610958600480360360208110156108b557600080fd5b81019080803590602001906401000000008111156108d257600080fd5b8201836020820111156108e457600080fd5b8035906020019184600183028401116401000000008311171561090657600080fd5b91908080601f016020809104026020016040519081016040528093929190818152602001838380828437600081840152601f19601f820116905080830192505050505050509192919290505050612392565b6040518080602001828103825283818151815260200191508051906020019080838360005b8381101561099857808201518184015260208101905061097d565b50505050905090810190601f1680156109c55780820380516001836020036101000a031916815260200191505b509250505060405180910390f35b610a8c600480360360208110156109e957600080fd5b8101908080359060200190640100000000811115610a0657600080fd5b820183602082011115610a1857600080fd5b80359060200191846001830284011164010000000083111715610a3a57600080fd5b91908080601f016020809104026020016040519081016040528093929190818152602001838380828437600081840152601f19601f8201169050808301925050505050505091929192905050506124a0565b6040518080602001828103825283818151815260200191508051906020019080838360005b83811015610acc578082015181840152602081019050610ab1565b50505050905090810190601f168015610af95780820380516001836020036101000a031916815260200191505b509250505060405180910390f35b610bc060048036036020811015610b1d57600080fd5b8101908080359060200190640100000000811115610b3a57600080fd5b820183602082011115610b4c57600080fd5b80359060200191846001830284011164010000000083111715610b6e57600080fd5b91908080601f016020809104026020016040519081016040528093929190818152602001838380828437600081840152601f19601f8201169050808301925050505050505091929192905050506125ae565b6040518080602001828103825283818151815260200191508051906020019080838360005b83811015610c00578082015181840152602081019050610be5565b50505050905090810190601f168015610c2d5780820380516001836020036101000a031916815260200191505b509250505060405180910390f35b6112446004803603610140811015610c5257600080fd5b8101908080359060200190640100000000811115610c6f57600080fd5b820183602082011115610c8157600080fd5b80359060200191846001830284011164010000000083111715610ca357600080fd5b91908080601f016020809104026020016040519081016040528093929190818152602001838380828437600081840152601f19601f82011690508083019250505050505050919291929080359060200190640100000000811115610d0657600080fd5b820183602082011115610d1857600080fd5b80359060200191846001830284011164010000000083111715610d3a57600080fd5b91908080601f016020809104026020016040519081016040528093929190818152602001838380828437600081840152601f19601f82011690508083019250505050505050919291929080359060200190640100000000811115610d9d57600080fd5b820183602082011115610daf57600080fd5b80359060200191846001830284011164010000000083111715610dd157600080fd5b91908080601f016020809104026020016040519081016040528093929190818152602001838380828437600081840152601f19601f82011690508083019250505050505050919291929080359060200190640100000000811115610e3457600080fd5b820183602082011115610e4657600080fd5b80359060200191846001830284011164010000000083111715610e6857600080fd5b91908080601f016020809104026020016040519081016040528093929190818152602001838380828437600081840152601f19601f82011690508083019250505050505050919291929080359060200190640100000000811115610ecb57600080fd5b820183602082011115610edd57600080fd5b80359060200191846001830284011164010000000083111715610eff57600080fd5b91908080601f016020809104026020016040519081016040528093929190818152602001838380828437600081840152601f19601f82011690508083019250505050505050919291929080359060200190640100000000811115610f6257600080fd5b820183602082011115610f7457600080fd5b80359060200191846001830284011164010000000083111715610f9657600080fd5b91908080601f016020809104026020016040519081016040528093929190818152602001838380828437600081840152601f19601f82011690508083019250505050505050919291929080359060200190640100000000811115610ff957600080fd5b82018360208201111561100b57600080fd5b8035906020019184600183028401116401000000008311171561102d57600080fd5b91908080601f016020809104026020016040519081016040528093929190818152602001838380828437600081840152601f19601f8201169050808301925050505050505091929192908035906020019064010000000081111561109057600080fd5b8201836020820111156110a257600080fd5b803590602001918460018302840111640100000000831117156110c457600080fd5b91908080601f016020809104026020016040519081016040528093929190818152602001838380828437600081840152601f19601f8201169050808301925050505050505091929192908035906020019064010000000081111561112757600080fd5b82018360208201111561113957600080fd5b8035906020019184600183028401116401000000008311171561115b57600080fd5b91908080601f016020809104026020016040519081016040528093929190818152602001838380828437600081840152601f19601f820116905080830192505050505050509192919290803590602001906401000000008111156111be57600080fd5b8201836020820111156111d057600080fd5b803590602001918460018302840111640100000000831117156111f257600080fd5b91908080601f016020809104026020016040519081016040528093929190818152602001838380828437600081840152601f19601f8201169050808301925050505050505091929192905050506126bc565b005b6112ff6004803603602081101561125c57600080fd5b810190808035906020019064010000000081111561127957600080fd5b82018360208201111561128b57600080fd5b803590602001918460018302840111640100000000831117156112ad57600080fd5b91908080601f016020809104026020016040519081016040528093929190818152602001838380828437600081840152601f19601f820116905080830192505050505050509192919290505050612a47565b6040518080602001828103825283818151815260200191508051906020019080838360005b8381101561133f578082015181840152602081019050611324565b50505050905090810190601f16801561136c5780820380516001836020036101000a031916815260200191505b509250505060405180910390f35b6114336004803603602081101561139057600080fd5b81019080803590602001906401000000008111156113ad57600080fd5b8201836020820111156113bf57600080fd5b803590602001918460018302840111640100000000831117156113e157600080fd5b91908080601f016020809104026020016040519081016040528093929190818152602001838380828437600081840152601f19601f820116905080830192505050505050509192919290505050612b55565b6040518080602001828103825283818151815260200191508051906020019080838360005b83811015611473578082015181840152602081019050611458565b50505050905090810190601f1680156114a05780820380516001836020036101000a031916815260200191505b509250505060405180910390f35b60606001826040518082805190602001908083835b602083106114e657805182526020820191506020810190506020830392506114c3565b6001836020036101000a03801982511681845116808217855250505050505090500191505090815260200160405180910390206005018054600181600116156101000203166002900480601f0160208091040260200160405190810160405280929190818152602001828054600181600116156101000203166002900480156115b05780601f10611585576101008083540402835291602001916115b0565b820191906000526020600020905b81548152906001019060200180831161159357829003601f168201915b50505050509050919050565b60606001826040518082805190602001908083835b602083106115f457805182526020820191506020810190506020830392506115d1565b6001836020036101000a03801982511681845116808217855250505050505090500191505090815260200160405180910390206001018054600181600116156101000203166002900480601f0160208091040260200160405190810160405280929190818152602001828054600181600116156101000203166002900480156116be5780601f10611693576101008083540402835291602001916116be565b820191906000526020600020905b8154815290600101906020018083116116a157829003601f168201915b50505050509050919050565b60606001826040518082805190602001908083835b6020831061170257805182526020820191506020810190506020830392506116df565b6001836020036101000a03801982511681845116808217855250505050505090500191505090815260200160405180910390206006018054600181600116156101000203166002900480601f0160208091040260200160405190810160405280929190818152602001828054600181600116156101000203166002900480156117cc5780601f106117a1576101008083540402835291602001916117cc565b820191906000526020600020905b8154815290600101906020018083116117af57829003601f168201915b50505050509050919050565b6117e0612c63565b6001866040518082805190602001908083835b6020831061181657805182526020820191506020810190506020830392506117f3565b6001836020036101000a038019825116818451168082178552505050505050905001915050908152602001604051809103902060405180610120016040529081600082018054600181600116156101000203166002900480601f0160208091040260200160405190810160405280929190818152602001828054600181600116156101000203166002900480156118ee5780601f106118c3576101008083540402835291602001916118ee565b820191906000526020600020905b8154815290600101906020018083116118d157829003601f168201915b50505050508152602001600182018054600181600116156101000203166002900480601f0160208091040260200160405190810160405280929190818152602001828054600181600116156101000203166002900480156119905780601f1061196557610100808354040283529160200191611990565b820191906000526020600020905b81548152906001019060200180831161197357829003601f168201915b50505050508152602001600282018054600181600116156101000203166002900480601f016020809104026020016040519081016040528092919081815260200182805460018160011615610100020316600290048015611a325780601f10611a0757610100808354040283529160200191611a32565b820191906000526020600020905b815481529060010190602001808311611a1557829003601f168201915b50505050508152602001600382018054600181600116156101000203166002900480601f016020809104026020016040519081016040528092919081815260200182805460018160011615610100020316600290048015611ad45780601f10611aa957610100808354040283529160200191611ad4565b820191906000526020600020905b815481529060010190602001808311611ab757829003601f168201915b50505050508152602001600482018054600181600116156101000203166002900480601f016020809104026020016040519081016040528092919081815260200182805460018160011615610100020316600290048015611b765780601f10611b4b57610100808354040283529160200191611b76565b820191906000526020600020905b815481529060010190602001808311611b5957829003601f168201915b50505050508152602001600582018054600181600116156101000203166002900480601f016020809104026020016040519081016040528092919081815260200182805460018160011615610100020316600290048015611c185780601f10611bed57610100808354040283529160200191611c18565b820191906000526020600020905b815481529060010190602001808311611bfb57829003601f168201915b50505050508152602001600682018054600181600116156101000203166002900480601f016020809104026020016040519081016040528092919081815260200182805460018160011615610100020316600290048015611cba5780601f10611c8f57610100808354040283529160200191611cba565b820191906000526020600020905b815481529060010190602001808311611c9d57829003601f168201915b50505050508152602001600782018054600181600116156101000203166002900480601f016020809104026020016040519081016040528092919081815260200182805460018160011615610100020316600290048015611d5c5780601f10611d3157610100808354040283529160200191611d5c565b820191906000526020600020905b815481529060010190602001808311611d3f57829003601f168201915b50505050508152602001600882018054600181600116156101000203166002900480601f016020809104026020016040519081016040528092919081815260200182805460018160011615610100020316600290048015611dfe5780601f10611dd357610100808354040283529160200191611dfe565b820191906000526020600020905b815481529060010190602001808311611de157829003601f168201915b5050505050815250509050848160000181905250838160200181905250828160400181905250806001886040518082805190602001908083835b60208310611e5b5780518252602082019150602081019050602083039250611e38565b6001836020036101000a03801982511681845116808217855250505050505090500191505090815260200160405180910390206000820151816000019080519060200190611eaa929190612caf565b506020820151816001019080519060200190611ec7929190612caf565b506040820151816002019080519060200190611ee4929190612caf565b506060820151816003019080519060200190611f01929190612caf565b506080820151816004019080519060200190611f1e929190612caf565b5060a0820151816005019080519060200190611f3b929190612caf565b5060c0820151816006019080519060200190611f58929190612caf565b5060e0820151816007019080519060200190611f75929190612caf565b50610100820151816008019080519060200190611f93929190612caf565b509050506001826040518082805190602001908083835b60208310611fcd5780518252602082019150602081019050602083039250611faa565b6001836020036101000a03801982511681845116808217855250505050505090500191505090815260200160405180910390206001876040518082805190602001908083835b602083106120365780518252602082019150602081019050602083039250612013565b6001836020036101000a038019825116818451168082178552505050505050905001915050908152602001604051809103902060008201816000019080546001816001161561010002031660029004612090929190612d2f565b50600182018160010190805460018160011615610100020316600290046120b8929190612d2f565b50600282018160020190805460018160011615610100020316600290046120e0929190612d2f565b5060038201816003019080546001816001161561010002031660029004612108929190612d2f565b5060048201816004019080546001816001161561010002031660029004612130929190612d2f565b5060058201816005019080546001816001161561010002031660029004612158929190612d2f565b5060068201816006019080546001816001161561010002031660029004612180929190612d2f565b50600782018160070190805460018160011615610100020316600290046121a8929190612d2f565b50600882018160080190805460018160011615610100020316600290046121d0929190612d2f565b509050506001826040518082805190602001908083835b6020831061220a57805182526020820191506020810190506020830392506121e7565b6001836020036101000a03801982511681845116808217855250505050505090500191505090815260200160405180910390206000808201600061224e9190612db6565b60018201600061225e9190612db6565b60028201600061226e9190612db6565b60038201600061227e9190612db6565b60048201600061228e9190612db6565b60058201600061229e9190612db6565b6006820160006122ae9190612db6565b6007820160006122be9190612db6565b6008820160006122ce9190612db6565b505050505050505050565b600281815481106122e657fe5b906000526020600020016000915090508054600181600116156101000203166002900480601f01602080910402602001604051908101604052809291908181526020018280546001816001161561010002031660029004801561238a5780601f1061235f5761010080835404028352916020019161238a565b820191906000526020600020905b81548152906001019060200180831161236d57829003601f168201915b505050505081565b60606001826040518082805190602001908083835b602083106123ca57805182526020820191506020810190506020830392506123a7565b6001836020036101000a03801982511681845116808217855250505050505090500191505090815260200160405180910390206002018054600181600116156101000203166002900480601f0160208091040260200160405190810160405280929190818152602001828054600181600116156101000203166002900480156124945780601f1061246957610100808354040283529160200191612494565b820191906000526020600020905b81548152906001019060200180831161247757829003601f168201915b50505050509050919050565b60606001826040518082805190602001908083835b602083106124d857805182526020820191506020810190506020830392506124b5565b6001836020036101000a03801982511681845116808217855250505050505090500191505090815260200160405180910390206008018054600181600116156101000203166002900480601f0160208091040260200160405190810160405280929190818152602001828054600181600116156101000203166002900480156125a25780601f10612577576101008083540402835291602001916125a2565b820191906000526020600020905b81548152906001019060200180831161258557829003601f168201915b50505050509050919050565b60606001826040518082805190602001908083835b602083106125e657805182526020820191506020810190506020830392506125c3565b6001836020036101000a03801982511681845116808217855250505050505090500191505090815260200160405180910390206007018054600181600116156101000203166002900480601f0160208091040260200160405190810160405280929190818152602001828054600181600116156101000203166002900480156126b05780601f10612685576101008083540402835291602001916126b0565b820191906000526020600020905b81548152906001019060200180831161269357829003601f168201915b50505050509050919050565b6126c4612c63565b8a81600001819052508881602001819052508781604001819052508681606001819052508581608001819052508481608001819052508381608001819052508281608001819052508181608001819052508060008c6040518082805190602001908083835b6020831061274c5780518252602082019150602081019050602083039250612729565b6001836020036101000a0380198251168184511680821785525050505050509050019150509081526020016040518091039020600082015181600001908051906020019061279b929190612caf565b5060208201518160010190805190602001906127b8929190612caf565b5060408201518160020190805190602001906127d5929190612caf565b5060608201518160030190805190602001906127f2929190612caf565b50608082015181600401908051906020019061280f929190612caf565b5060a082015181600501908051906020019061282c929190612caf565b5060c0820151816006019080519060200190612849929190612caf565b5060e0820151816007019080519060200190612866929190612caf565b50610100820151816008019080519060200190612884929190612caf565b509050508060018b6040518082805190602001908083835b602083106128bf578051825260208201915060208101905060208303925061289c565b6001836020036101000a0380198251168184511680821785525050505050509050019150509081526020016040518091039020600082015181600001908051906020019061290e929190612caf565b50602082015181600101908051906020019061292b929190612caf565b506040820151816002019080519060200190612948929190612caf565b506060820151816003019080519060200190612965929190612caf565b506080820151816004019080519060200190612982929190612caf565b5060a082015181600501908051906020019061299f929190612caf565b5060c08201518160060190805190602001906129bc929190612caf565b5060e08201518160070190805190602001906129d9929190612caf565b506101008201518160080190805190602001906129f7929190612caf565b5090505060028b9080600181540180825580915050906001820390600052602060002001600090919290919091509080519060200190612a38929190612dfe565b50505050505050505050505050565b60606001826040518082805190602001908083835b60208310612a7f5780518252602082019150602081019050602083039250612a5c565b6001836020036101000a03801982511681845116808217855250505050505090500191505090815260200160405180910390206003018054600181600116156101000203166002900480601f016020809104026020016040519081016040528092919081815260200182805460018160011615610100020316600290048015612b495780601f10612b1e57610100808354040283529160200191612b49565b820191906000526020600020905b815481529060010190602001808311612b2c57829003601f168201915b50505050509050919050565b60606001826040518082805190602001908083835b60208310612b8d5780518252602082019150602081019050602083039250612b6a565b6001836020036101000a03801982511681845116808217855250505050505090500191505090815260200160405180910390206004018054600181600116156101000203166002900480601f016020809104026020016040519081016040528092919081815260200182805460018160011615610100020316600290048015612c575780601f10612c2c57610100808354040283529160200191612c57565b820191906000526020600020905b815481529060010190602001808311612c3a57829003601f168201915b50505050509050919050565b6040518061012001604052806060815260200160608152602001606081526020016060815260200160608152602001606081526020016060815260200160608152602001606081525090565b828054600181600116156101000203166002900490600052602060002090601f016020900481019282601f10612cf057805160ff1916838001178555612d1e565b82800160010185558215612d1e579182015b82811115612d1d578251825591602001919060010190612d02565b5b509050612d2b9190612e7e565b5090565b828054600181600116156101000203166002900490600052602060002090601f016020900481019282601f10612d685780548555612da5565b82800160010185558215612da557600052602060002091601f016020900482015b82811115612da4578254825591600101919060010190612d89565b5b509050612db29190612e7e565b5090565b50805460018160011615610100020316600290046000825580601f10612ddc5750612dfb565b601f016020900490600052602060002090810190612dfa9190612e7e565b5b50565b828054600181600116156101000203166002900490600052602060002090601f016020900481019282601f10612e3f57805160ff1916838001178555612e6d565b82800160010185558215612e6d579182015b82811115612e6c578251825591602001919060010190612e51565b5b509050612e7a9190612e7e565b5090565b612ea091905b80821115612e9c576000816000905550600101612e84565b5090565b9056fea265627a7a72315820bb9af5e220b642398393cb8fc99c54808087db4eef471bc1618301ae017f827664736f6c63430005100032",
  "source": "// SimpleStorage.sol\r\npragma solidity >=0.4.21 <0.7.1;\r\n\r\ncontract SimpleStorage {\r\n  struct OwnerStruct{\r\n    string id;\r\n    string firstName;\r\n    string lastName;\r\n    string lats;\r\n    string state;\r\n    string city;\r\n    string locality;\r\n    string plotNo;\r\n    string price;\r\n  }\r\n\r\n  mapping(string => OwnerStruct) ownerList;\r\n  mapping(string => OwnerStruct) lands;\r\n\r\n  string[] public ownerAccts;\r\n\r\n  function setOwner(string memory _address, string memory _id, string memory _fName, string memory _lName, string memory _lats, string memory _state, string memory _city, string memory _locality, string memory _plotNo, string memory _price) public {\r\n      OwnerStruct memory owner;\r\n      owner.id = _address;\r\n      owner.firstName = _fName;\r\n      owner.lastName = _lName;\r\n      owner.lats = _lats;\r\n      owner.state = _state;\r\n      owner.state = _city;\r\n      owner.state = _locality;\r\n      owner.state = _plotNo;\r\n      owner.state = _price;\r\n      ownerList[_address] = owner;\r\n      lands[_id] = owner;\r\n      ownerAccts.push(_address);\r\n  }\r\n\r\n  function transaction(string memory _buyerID, string memory _sellerID, \r\n  string memory _address, string memory _fName, string memory _lName, string memory _sellerLastID) public {\r\n      OwnerStruct memory owner;\r\n      owner = lands[_sellerID];\r\n      owner.id = _address;\r\n      owner.firstName = _fName;\r\n      owner.lastName = _lName;\r\n      lands[_buyerID] = owner;\r\n      lands[_sellerID] = lands[_sellerLastID];\r\n      delete lands[_sellerLastID];\r\n  }\r\n  \r\n  function getfName(string memory _id) public view returns (string memory){\r\n      return (lands[_id].firstName);\r\n  }\r\n\r\n  function getlName(string memory _id) public view returns (string memory){\r\n      return (lands[_id].lastName);\r\n  }\r\n\r\n  function getLats(string memory _id) public view returns (string memory){\r\n      return (lands[_id].lats);\r\n  }\r\n\r\n  function getState(string memory _id) public view returns (string memory){\r\n      return (lands[_id].state);\r\n  }\r\n\r\n  function getCity(string memory _id) public view returns (string memory){\r\n      return (lands[_id].city);\r\n  }\r\n\r\n  function getLocality(string memory _id) public view returns (string memory){\r\n      return (lands[_id].locality);\r\n  }\r\n\r\n  function getPlotNo(string memory _id) public view returns (string memory){\r\n      return (lands[_id].plotNo);\r\n  }\r\n\r\n  function getPrice(string memory _id) public view returns (string memory){\r\n      return (lands[_id].price);\r\n  }\r\n\r\n\r\n}",
  "sourcePath": "F:/Web Development/React/GiRecords/blockchain/contracts/SimpleStorage.sol",
  "compiler": {
    "name": "solc",
    "version": "0.5.16+commit.9c3226ce.Emscripten.clang"
  },
  "schemaVersion": "3.2.3",
  "updatedAt": "2020-08-28T19:28:01.425Z",
  "networkType": "ethereum",
  "devdoc": {
    "methods": {}
  },
  "userdoc": {
    "methods": {}
  }
}